:020000040800F2
:1000000000000420A1050008A12F0008A32F00086C
:10001000A52F0008A72F0008A92F00080000000046
:1000200000000000000000000000000031A30008F4
:10003000AB2F000800000000C1A3000825A40008A1
:10004000F1050008F1050008F1050008F1050008B8
:10005000F1050008F1050008F1050008AD2F0008C2
:10006000F1050008F1050008F1050008B52F0008AA
:10007000F1050008F1050008F1050008F105000888
:10008000F1050008F1050008F1050008F105000878
:10009000F1050008F1050008F1050008F105000868
:1000A000F1050008F1050008F1050008F105000858
:1000B000F1050008F1050008F1050008C12F00084E
:1000C000CD2F0008F1050008F1050008F105000832
:1000D000F1050008F1050008F1050008F105000828
:1000E000F1050008F1050008F1050008F105000818
:1000F000F1050008F1050008F10500080000000006
:10010000F1050008F1050008F1050008F1050008F7
:10011000F1050008F1050008D92F0008F1050008D5
:10012000F1050008F1050008F1050008F1050008D7
:10013000F1050008F1050008F1050008F1050008C7
:10014000F1050008F1050008F1050008F1050008B7
:10015000F1050008F1050008F1050008F1050008A7
:10016000F1050008F1050008F1050008F105000897
:10017000F1050008F1050008E52F00080000000067
:10018000F1050008F1050008F1050008F105000877
:10019000F1050008F1050008000000000000000063
:1001A0000000000000000000F12F0008FD2F0008F3
:0C01B00009300008F1050008F105000806
:1001C00010B5054C237833B9044B13B10448AFF391
:1001D00000800123237010BD9C010020000000005E
:1001E000043C020808B5034B1BB103490348AFF3B5
:1001F000008008BD00000000A0010020043C0208AF
:1002000001F0FF01102A2BDB10F0070F08D010F8C7
:10021000013B013A8B422DD010F0070F42B3F6D1CB
:10022000F0B441EA012141EA014122F007047FF0E4
:1002300000070023F0E80256083C85EA010586EA3B
:10024000010685FA47F5A3FA87F586FA47F6A5FA77
:1002500087F68EB9EED1F0BC01F0FF0102F0070283
:1002600032B110F8013B013A83EA010313B1F8D12E
:100270000020704701387047002D06BF354603380F
:10028000073815F0010F07D1013015F4807F02BF48
:10029000013015F4C03F0130F0BC0138704700BF99
:1002A00053B94AB9002908BF00281CBF4FF0FF31DD
:1002B0004FF0FF3000F072B9ADF1080C6DE904CEDB
:1002C00000F006F8DDF804E0DDE9022304B0704731
:1002D0002DE9F047089E04468846002B4BD18A4200
:1002E000154667D9B2FA82F24AB1C2F1200701FA83
:1002F00002F320FA07F7954047EA030894404FEAD3
:10030000154E230CB8FBFEF71FFA85FC0EFB178871
:1003100043EA084307FB0CF1994209D9EB1807F1AE
:10032000FF3080F01B81994240F21881023F2B443C
:100330005B1AA4B2B3FBFEF00EFB103344EA034495
:1003400000FB0CFCA44509D92C1900F1FF3380F007
:100350000781A44540F2048102382C4440EA07405A
:10036000A4EB0C0400271EB1D4400023C6E90043CF
:100370003946BDE8F0878B4209D9002E00F0EB80AA
:100380000027C6E9000138463946BDE8F087B3FAD0
:1003900083F7002F47D18B4202D3824200F2FA80CA
:1003A000841A61EB030301209846002EE0D0C6E9D1
:1003B0000048DDE702B9FFDEB2FA82F2002A40F01F
:1003C0008F80491B4FEA154E1FFA85F80127B1FBB4
:1003D000FEFC230C0EFB1C1143EA014308FB0CF14D
:1003E000994207D9EB180CF1FF3002D2994200F282
:1003F000CD808446591AA3B2B1FBFEF00EFB101457
:1004000043EA044408FB00F8A04507D92C1900F181
:10041000FF3302D2A04500F2B6801846A4EB0804D0
:1004200040EA0C409FE7C7F1200CBB4022FA0CFECB
:100430004EEA030E01FA07F420FA0CF521FA0CF348
:100440004FEA1E482543B3FBF8F92C0C08FB19337F
:100450001FFA8EFA44EA034309FB0AF49C4202FAAB
:1004600007F200FA07F10BD91EEB030309F1FF3085
:1004700080F087809C4240F28480A9F10209734495
:100480001B1BADB2B3FBF8F008FB103345EA034485
:1004900000FB0AFAA24508D91EEB040400F1FF3361
:1004A0006BD2A24569D90238744440EA0940A0FBE6
:1004B0000289A4EB0A044C45C2464B4654D351D0A2
:1004C000002E69D0B1EB0A0564EB030404FA0CFCBE
:1004D000FD40FC404CEA0505C6E90054002747E70B
:1004E000C2F1200320FA03F7954001FA02F021FA45
:1004F00003F34FEA154E3843010CB3FBFEF71FFA26
:1005000085F80EFB173341EA034107FB08F38B42E2
:1005100004FA02F407D9691807F1FF3C2FD28B4285
:100520002DD9023F2944CB1A81B2B3FBFEF00EFB5A
:10053000103341EA034100FB08F38B4207D96918E5
:1005400000F1FF3C17D28B4215D902382944C91A51
:1005500040EA07473BE73746304609E70746E7E604
:100560001846FBE64145ABD2B8EB020A69EB0E0236
:1005700001381346A4E76046E9E7184695E7674661
:10058000D1E781467CE702382C4447E7ACF1020C06
:100590002B442FE7384608E73746E9E6704700BFA7
:1005A000DFF834D0002103E00C4B5B58435004319A
:1005B0000B480C4B42189A42F6D30B4A02E0002338
:1005C00042F8043B094B9A42F9D304F047FE22F06B
:1005D0005DFB00F0D7FFFEE70000042024AD020819
:1005E000000000209C0100209C01002014B4002089
:1005F000FEE700F065BE00F0D3BE40687047416082
:1006000070470000054A136843F080731360044A82
:10061000136843F001031360704700BFFCED00E076
:10062000001000E0521A02EB5302B2FBF3F07047E5
:10063000014B1868704700BF041000E0704710B508
:100640000C21044621F0DEFC204610BD036810B5E5
:100650001B69044631B19847A26863689B1A184425
:10066000606010BD9847A060FBE7704710B5094C6B
:10067000702023689847E36870209847A36970202A
:10068000984700220421012009F0F2FB024B186078
:1006900010BD00BF10000020BC01002037B50A4883
:1006A00000230D46144601A91A46006809F068FCAB
:1006B00040B9BDF804302B60BDF80630236001203E
:1006C00003B030BD0020FBE7BC01002010B50421C1
:1006D000044621F097FC204610BD704710B586B047
:1006E00006AC012304F8012D40F6B832CDE9013201
:1006F00000940A460146024806F00CF906B010BD07
:1007000058B100207FB506AA002302F8013D40F64B
:10071000B83C01230092CDE9013C0A460146044859
:1007200006F0ACF99DF8170007B05DF804FB00BFB8
:1007300058B1002037B50023A62170200193FFF7A0
:10074000E1FF012818BF294B294D2A4C1CBF01226B
:100750001A704FF0FF31286809F016FB23697020EA
:1007600098470028F5D063690DF1020269467020B0
:1007700098471E4BBDF802201978BDF8003079BBB0
:10078000C33AC33B1BB211B25A1A07EE102A9FEDAF
:100790001A6AB8EEC77AF6EE006A27EE067A0B44BC
:1007A00027EE267AFDEEC77A17EE902A07EE903AEA
:1007B000F8EEE77AC33267EE867AADF8042067EE8A
:1007C000A67AFDEEE77A17EE903AC333ADF806301D
:1007D0000A4800231A4601A9006809F08FFBB8E710
:1007E000ADF80430ADF80620F2E700BFB8010020F4
:1007F0000CB3002010000020F304B53FBC01002022
:100800001FB540F6B834CDE90134009201230A4601
:100810000146024806F032F904B010BD58B100207C
:1008200040B9054B05481A68B2FA82F25209102104
:1008300005F092BE704700BFC0010020001C0048B8
:1008400040B9054B05481A68003218BF0122102133
:1008500005F082BE704700BFC0010020001C0048A8
:1008600018B91021014805F07CBE7047001C0048F3
:1008700008B538B91021044805F068FE431E5842F7
:10088000584108BD0020F9E7001C004870B5084D2C
:1008900000240126E0B2FFF7EBFF28B155F8243021
:1008A000012B18BF45F824600134052CF2D170BD2E
:1008B000C0010020012380F8741080F87530704763
:1008C0000020704700207047836B0BB10846184723
:1008D00070474FF6FF707047406803689B69184780
:1008E00070477047014B1868704700BFD001002067
:1008F000034B702283F85A2383F84E23704700BFBE
:1009000000E100E030B5141C18BF01241D1C18BF05
:100910000125C163DAB101F56F3202F5407202645C
:10092000C3B102F56F3202F5407242640A4B1C708B
:100930000A4B1D700A4B4FF4C0621A80094B4FF4EA
:10094000C3721A80084B1C70084B196030BD0264DA
:100950000A46E5E74364E9E7AAAD0020ABAD002015
:10096000A6AD0020A8AD0020D4010020D0010020B9
:10097000704700F043BD0000024B00221A700BF0DC
:10098000F5BE00BF0400002010B504460BF0FAFECF
:1009900094F84B3013B1024B01221A7010BD00BF06
:1009A0000400002010B504460CF05CFC23682046CF
:1009B000D3F89030BDE8104018470BF0BFBE10B51B
:1009C0007C21044621F01EFB204610BD90F87730B4
:1009D0001BB1406803681B68184718467047000041
:1009E00030B590F8341090F87440104B8C421A785F
:1009F0000DD05AB90E4A0F490F4814880F4D0C807C
:100A0000018811802980048001221A7030BD002ADB
:100A1000FCD00948074A01881180054A074D14880F
:100A20002C80118004800022EFE700BFA4AD0020DD
:100A3000A0AD0020A6AD0020A2AD0020A8AD0020F2
:100A400038B5114B1B780D46E3B11048104C05F03A
:100A5000ECFA104B0022294620461D6006F0C5FD29
:100A600000B1FEE723680948D3F8842042F0010270
:100A7000C3F884205A6A42F001025A62BDE8384045
:100A800005F0B0BA38BD00BFD401002018B2002074
:100A900064B20020D0010020054B4FF080629A60C4
:100AA0004FF480429A604FF080529A60704700BFC6
:100AB00000E100E0084B4FF08062C3F88820BFF3EC
:100AC0004F8FBFF36F8F4FF48042C3F88820BFF37E
:100AD0004F8FBFF36F8F704700E100E070B5C0E942
:100AE0000112C360012200232249BDF81050BDF855
:100AF00014600385C0E90433C0E90633C0E9083354
:100B000080F82A30C3620386C0E90E33C0E910338F
:100B100080F8483080F8492080F84A30C0E9133323
:100B2000436580F8683080F8693080F86A3080F872
:100B30006B3080F86C304166036780F8772080F86E
:100B400078200D4A80F8753010600C4A80F87630B5
:100B500015800B4A16800B4A13700B4B1D800B4BF4
:100B6000B5421E802CBF00250125094B80F834506A
:100B7000036070BD01000001ACAD0020A0AD0020FD
:100B8000A2AD0020A4AD0020A6AD0020A8AD00209D
:100B9000B83C020837B50446FFF778FE204600F05F
:100BA00031FC084D0848002100912923052205F059
:100BB0006FFA2846FFF726FD0123256184F86C3083
:100BC00003B030BDD801002018B2002013B50C4B83
:100BD0000C4C01221A707C225A700193442300931A
:100BE000392202230021204605F063FA00210091FA
:100BF00035231522204605F04BFA02B010BD00BF88
:100C0000E401002018B2002008B5FFF7DFFF0A4B0F
:100C10001B680222C3F810240122C3F81024D3F861
:100C2000082442F00102C3F80824D3F8082442F053
:100C30000202C3F8082408BD18B200201FB5084BF3
:100C40001868039003AB01932A23009339220423ED
:100C50000021044805F02DFA05B05DF804FB00BF43
:100C60001C3C020818B2002070B5054608F096FF3B
:100C700002281D4C13D11D4E0020FFF7D1FD326814
:100C800092F86630013382F8663000F0A7F8184B0E
:100C90001B7823B9336813B1227883F84A2023786C
:100CA00013B1144C227842B108F078FF02281AD10F
:100CB0000020BDE87040FFF7C3BD08F06FFF0228B9
:100CC00009D10B4B1B7823B1084B186808B10CF005
:100CD000C9FA012323700020FFF7B0FF2846BDE8C2
:100CE000704005F0C5B970BD04000020ACAD002017
:100CF000D4010020E601002010B508F04FFF0228C3
:100D00000DD10020FFF79CFD054B00221A70054B0A
:100D1000186820B10368BDE810409B69184710BDF2
:100D2000E6010020ACAD002008B5054B01461B686C
:100D300000B1012118460CF0AFFA012008BD00BF38
:100D4000ACAD0020034B00225A609A60024A1A6040
:100D5000704700BFD8010020783C0208012108B587
:100D60000022084608F0BAFF0A4B186028B90A4B5F
:100D70000A4A25210A4821F03FFF002204210120D0
:100D800009F076F8074B186018B9074B034A292178
:100D9000F0E708BDEC0100206C3D0208493E020866
:100DA000B53D0208E8010020073E0208024B4FF063
:100DB000FF31186808F0E8BFEC010020014B18680B
:100DC00009F01EB8EC010020024B0021186808F061
:100DD000DBBF00BFEC010020FFF7F0BF0348044970
:100DE000006800231A4609F089B800BFE801002016
:100DF0000800002013B5084C00231A4601A92068FA
:100E000009F0BEF84FF0FF33002201A9206809F075
:100E1000B7F802B010BD00BFE801002003685B6CAA
:100E200018470120704703689B6A18470D4B9A6C5E
:100E300042F400329A649A6C82B002F40032019259
:100E4000019A9A6A42F400329A629A6A22F4003253
:100E50009A62054B054A1A62054B4FF080629A6010
:100E600002B07047001002401CB300207D0E000845
:100E700000E100E040F2EF1070470000024B1B68F9
:100E8000586803685B691847ACAD002008B50B28AB
:100E90000BD8DFE800F01206100A0A0A0A08080850
:100EA0000808012008BD0520FCE7054B054A064857
:100EB000652121F0A1FE0020F4E70220F2E700BF47
:100EC000923E0208903F0208AD3E020808B50A288B
:100ED00009D8DFE800F010060E0808080806060624
:100EE0000600012008BD054B054A0648862121F071
:100EF00083FE0020F6E70220F4E700BF923E0208DE
:100F0000DC3F0208AD3E02082DE9F0414E7F0C4661
:100F10003046FFF7BBFF94F81E8007464046FFF7B8
:100F2000B5FF05464046FFF7D1FF218AE28A514BC3
:100F3000521A1A649A61A28A521A1A61628A586312
:100F400042EA01425A646168E268DA63D960D4F81F
:100F500000C0207FBCF1400F4FEA0060194679D0F5
:100F600024D8BCF1040F43D0BCF1200F72D040F460
:100F7000003038430B2EC86179D1A268131DCB62B3
:100F8000CB69528823F47F4323F01003013A43F0E6
:100F9000100343EA0223CB61CB6943F02003CB610A
:100FA000344BDA6992065ED500BFFAE7BCF1800FD8
:100FB00007D0BCF5807FDAD140F4003040F0090062
:100FC00003E040F4003040F00A00D861A06901025B
:100FD000440101F4780104F47C44C0002143C0B210
:100FE000014319625D625A61234A1A60BDE8F081CB
:100FF00040F4003038430B2ED8615D625A6127D12E
:10100000A1681E480A1DDA620A783AB1012A16D090
:101010001B4B1C4A1C48FC2121F0EEFDDA69498873
:101020000240013942EA0122DA61124BDA6942F0E8
:101030002002DA61DA69910608D500BFFAE7DA69B9
:1010400049880240013942F01002EBE710229A6011
:10105000084BC9E740F400303843074BC8614D6284
:101060004A610B60C2E710229A60084ABDE740F26D
:101070000123F6E700B0024001020200EF00FFFF8B
:10108000783E0208503F0208AD3E0208010201000E
:10109000F8B58E7F0C463046FFF718FF278A628A24
:1010A000E18A1E4BE568586342EA0742C91B5A644D
:1010B000DD6319642768A269082F19D19961196144
:1010C0005862217F090641F4803141F00901D9615C
:1010D0005001110201F4780100F47C40D200014378
:1010E000D2B20A431A620E4A5D61DD601A60F8BD31
:1010F0000021D86119611EB99A63084B094AF5E7C6
:101100001002510101F47C4100F47800D200084340
:10111000D2B2217F024342EA0162EDE700B0024011
:101120000102020001020300054B0360054B4FF072
:101130008062C3F88820BFF34F8FBFF36F8F704773
:10114000083F020800E100E010B50446FFF7ECFF9D
:1011500020464FF4426120F055FF204610BD0000AC
:1011600070B505462C460A4B0C30002668602E727E
:101170006E7244F8203B602221460CF0BBF905F565
:101180004263A6612034A342FBD1284670BD00BF54
:10119000083F02080120704754207047542303FB86
:1011A000010008307047542303FB010008307047EA
:1011B0000120704741F68810704741F6881303FB01
:1011C00001000830704741F6881303FB0100083026
:1011D0007047012070471020704700EB0110083065
:1011E000704700EB011008307047084602F0C2B9A2
:1011F00010B5034B036004460AF0DCFE204610BD28
:101200009C40020810B50446FFF7F2FF20465C211F
:1012100020F0F8FE204610BD10B5034B03600446D5
:101220000AF0C8FE204610BD6840020810B504460A
:10123000FFF7F2FF204641F6901120F0E3FE204632
:1012400010BD000010B5034B036004460AF0B2FE67
:10125000204610BD3440020810B50446FFF7F2FFE7
:101260002046182120F0CEFE204610BD10B5094BB7
:101270000360044600F5CD501C30FFF7B9FF04F1C0
:101280002C00FFF7C9FF04F11400FFF7DBFF204635
:1012900010BD00BFD040020808B50248FFF7E6FFC6
:1012A00008BD00BFF401002010B50446FFF7DEFFC3
:1012B000204641F6743120F0A5FE204610BD000006
:1012C0002DE9F34101F016FF054601F017FF002458
:1012D0000146234628462246009412F067FD244B1F
:1012E000244A254D1A60204603F0C2F9234812F023
:1012F0009FFC2B78BFF35B8FDB0733D4284620F0AD
:1013000083FE78B31E4C1F4F1F4BE76007F160064A
:1013100004F1140004F12C086060C4F80880266110
:1013200023600AF049FE194B636140460AF044FE0F
:10133000174BE36238460AF03FFE164B3B6007F15D
:101340005C0003F013FA224607F15C01304603F01B
:1013500003FA304602F00EF9284620F061FE0E48EE
:1013600021F068FC0D4802B0BDE8F041FFF712BC67
:1013700028AE0020082A0020F00100200C000020E8
:10138000F4010020B01B0020D040020834400208C5
:10139000684002089C400208991200088C2900202D
:1013A00001480BF0FCB900BF8C29002073B50B4C31
:1013B0000B4E0C4D0C4B33602046FFF7D1FE2846F8
:1013C00015F080FD4FF4C373CDE900332A46334650
:1013D00021460648FFF782FB02B070BD6C1D00205D
:1013E000681D00200C2A0020A03C02088C29002047
:1013F0000148FFF799BE00BF6C1D00200BF0A4B997
:101400000BF0D7BA38B504460BF0A4FC2368DD6CAA
:101410000FF078FB01462046A84723681D6F002384
:101420001A464FF040512046A847012384F84A301D
:1014300038BD0000014900200AF0DAB8290D000883
:1014400008B5FFF7D8F8FEE708B5042203490448B9
:1014500007F0DAFF012008F027FCFBE7882A0020CC
:10146000CCB0002010B5BEB04422002106A821F067
:101470004CFC1422002101A821F047FC9C220021F1
:1014800017A821F042FC002006F086FD00B100BE46
:101490004FF4803311240122CDE906430023CDE926
:1014A0000C2360230E930223CDE91032129206A87A
:1014B0003C22CDE91323CDE9153306F055FE00B1EA
:1014C00000BE0F2003230024CDE90103052101A85C
:1014D000CDE90344059407F0F5F800B100BE0E4BCA
:1014E00017934FF480333A930123CDE91F335021F2
:1014F00002230422CDE92113CDE9233217A84FF0AE
:10150000807328942C94CDE93B44259307F080FB0D
:1015100000B100BE3EB010BD4400C00108B50422B9
:1015200032238421024805F063FB00B100BE08BDF0
:1015300058B100207FB5104B1048DA6C42F480722D
:10154000DA64DB6C03F480730093009B0223019345
:101550000023CDE9033301A9094B029304F08EFE69
:101560000F221146072003F0E5FE072003F016FFC7
:1015700007B05DF804FB00BF0010024000200048E7
:10158000000011102DE98048B34CC9B003F08AFE69
:10159000FFF768FF1422002134A821F0B6FBE36CAA
:1015A00043F48073E364E36C03F480730993099B51
:1015B000E36C43F04003E364E36C03F040030A93FD
:1015C0000A9B06F043FDE36CA44843F00203E36486
:1015D000E36C03F002030B930B9BE36C43F080037B
:1015E000E364E36C03F080030C930C9BE36C43F027
:1015F0002003E364E36C03F0200300220D93102129
:101600000D9B04F0A9FF964B96484FF0020E002563
:1016100034A9CDE934E30126369504F02FFE1023DA
:10162000CDE9343634A903238C483793369504F03A
:1016300025FE2A460521072003F07CFE072003F043
:10164000ADFEA36C43F00403A364A36C03F0040396
:101650000793079BA36C3343A364A36C33400893A5
:101660002A4605210B20089B03F064FE0B2003F0A3
:1016700095FE7D487D4B03608580C0E90555066277
:1016800003F0AEFE00B100BE79487A4B0360402201
:101690000023C0E90123784A80F82430C0E90323FD
:1016A000C0E90533037704F07AFD00B100BE734B47
:1016B0006F480122002104F099FD00B100BE40F204
:1016C0007A224FF4C3716A4804F0B5FD00B100BE40
:1016D0006B4C3422002120A821F017FB342200217A
:1016E00034A821F012FB204605F0EAFE654B23608A
:1016F0000123C4E9073340F287130025C4E9093305
:101700004FF4C473C4E90155C4E90355C4E9055550
:10171000C4E90B33A58684F83650204684F8A150DE
:1017200005F062FE00B100BEFF220226CDE9246270
:101730004FF480670522CDE927724FF0405C4FF4EB
:10174000C0624FF4C373CDE929C220A900224C48DE
:101750002095CDE92135239326952B93ADF8B050F4
:101760008DF8B25005F018FF00B100BE05224FF40D
:1017700080650023CDE93B5234A9012240483A93C9
:10178000CDE93433CDE93633CDE93833CDE93D33D6
:101790003F93ADF800318DF8023105F0FDFE00B148
:1017A00000BE00224FF4C061354805F03FFF00B194
:1017B00000BE01220021324805F038FF00B100BE12
:1017C00022683148D2F88430304C43F00103C2F82B
:1017D000843000230222C0E91032C0E91233C0E98C
:1017E0001433C0E90043C0E90223C0E9063303F023
:1017F000CBFF00B100BE0121234804F08FF800B1F7
:1018000000BE2348234B0360A3F17863A3F57D2337
:10181000A3F64F63436001220023C0E90232C0E90E
:101820000433C0E90633036205F00AF800B100BED4
:101830000021174805F006FD00B100BE0021144844
:1018400005F026FD00B100BE134C144D2368144E64
:101850008420984726E000BF00100240001C00488A
:101860000000111000200048F4B1002000300240B8
:1018700038B2002000C00240000004208C2A002062
:1018800064B20020006801401CB3002000B0024098
:1018900058B10020005400408400002018B20020FD
:1018A000006C0140E368CA498420984723691222EA
:1018B0004FF4007184209847FFF73CFEC54B53F866
:1018C000040B03900024186804902422214617A8D2
:1018D000CDE90E44109421F018FA1822214611A8DF
:1018E00021F013FA3422214634A821F00EFA2C22DA
:1018F000214620A821F009FA2E606C7403F05EFCEA
:1019000021464FF4806003F09FFC052003F0ECFCBF
:1019100006214FF4802003F08BFC06214FF48070E9
:1019200003F086FC03F04AFC01214FF4807003F0C1
:101930008BFC01214FF4807003F07AFC21464FF4B8
:10194000807003F081FC012003F0CEFC01214FF4F4
:10195000802003F079FC01214FF4802003F068FC23
:1019600021464FF4802003F06FFC0F2003F0BCFCF5
:1019700001214FF4806003F05BFC01214FF4806093
:1019800003F062FC782003F0AFFC04237D220EA953
:101990002846C5E90064C5E90234CDE90E23109458
:1019A00004F092F800B100BE012317A98A481F94E1
:1019B000CDE91734CDE91944CDE91B44CDE91D44E7
:1019C00004F0AAFA00B100BE21234FF01C0BCDE9B0
:1019D00011B30F2219230021CDE913230723CDE9E9
:1019E00015137D4811A904F05AFA00B100BE042174
:1019F000794804F043FA00B100BE42F21071764813
:101A000004F0B7FB00B100BE0021734803F0F7FFFC
:101A100000B100BE4FF400734FF4807ECDE934E393
:101A20004FF480684FF40063CDE936834FF480595A
:101A30004FF400530024CDE938934FF48033CDE9BF
:101A40003A434FF4003A4FF4802334A9624840945B
:101A5000CDE93CA3CDE93E4404F0DCF900B100BE81
:101A60004FF4C3730526CDE9216310272023CDE968
:101A700023734FF0040C0223CDE925C320A90123D1
:101A800055482094CDE9274429942A9304F050F92D
:101A900000B100BE0021504804F039F900B100BE89
:101AA00000242B6805945A684B4842F001025A60A2
:101AB0005B6803F0010301250593059B0095FE2358
:101AC0001522214604F0E4FA6223802600931522B1
:101AD00006232146404804F0DBFA00960E23152227
:101AE00021463D4804F0D4FA00960F2315222146E2
:101AF000394804F0CDFA7123812600931522102372
:101B00002146354804F0C4FA0096132315222146D5
:101B1000314804F0BDFA00961423152221462E48C0
:101B200004F0B6FA8223009315231A4621462A4868
:101B300004F0AEFA8223009315221623214626488C
:101B400004F0A6FA8823552600931522182321466F
:101B5000214804F09DFA4FF0100900961923152230
:101B600021461D4804F094FACDF800901A2315225E
:101B70002146194804F08CFA99234FF0030800938A
:101B800015221C232146144804F082FACDF8008067
:101B90001D2315222146104804F07AFACDF8008062
:101BA0001E23152221460C4804F072FACDF800805D
:101BB0001F2315222146084804F06AFACDF8008058
:101BC000202315222146044804F062FA06E000BFF3
:101BD000FFFF0300203C020818B20020CDF800806F
:101BE000252315222146CF4804F052FA8D23009375
:101BF000152226232146CB4804F04AFACDF800806E
:101C00002A2315222146C74804F042FA8D23009367
:101C100015222B232146C34804F03AFA3623152215
:101C200021460094BF4804F033FACDF800903723E2
:101C300015222146BB4804F02BFA3A2315222146EF
:101C40000094B84804F024FA3B231522214600945E
:101C5000B44804F01DFA2023009315223D232146A9
:101C6000B04804F015FA3A23009315223F23214689
:101C7000AC4804F00DFA302300931522402321468E
:101C8000A84804F005FA1A2300931522412321469F
:101C9000A44804F0FDF933234FF0220B00931522E2
:101CA000422321469F4804F0F3F9CDF800B04323C6
:101CB000152221469B4804F0EBF911234FF0660AE8
:101CC0000093152244232146964804F0E1F9CDF80B
:101CD00000A0452315222146924804F0D9F9442753
:101CE00000964623152221468E4804F0D1F900972C
:101CF0004723152221468B4804F0CAF93323009369
:101D000015224C232146874804F0C2F9CDF800B0D3
:101D10004D2315222146834804F0BAF9112300937C
:101D200015224E2321467F4804F0B2F9CDF800A0D9
:101D30004F23152221467B4804F0AAF90096502330
:101D400015222146774804F0A3F900975123152264
:101D50002146744804F09CF933230093152257233D
:101D60002146704804F094F91B23009315226B233D
:101D700021466C4804F08CF9009670231522214608
:101D8000684804F085F90C23022700931522742378
:101D90002146644804F07CF94FF0400AFE231522E6
:101DA000214600975F4804F073F9CDF800A09B230B
:101DB000152221465B4804F06BF99C23152221462D
:101DC0000094584804F064F92023009315229D23C1
:101DD0002146544804F05CF9CDF80080FE2315221A
:101DE0002146504804F054F9CDF800A09B23152259
:101DF00021464C4804F04CF99C23152221460094BE
:101E0000484804F045F920230426009315229D2319
:101E10002146444804F03CF9FE2315222146009651
:101E2000404804F035F9CDF800905D231522214695
:101E30003C4804F02DF98D230093152223462146BA
:101E4000384804F025F92B461522214600943548E0
:101E500004F01EF900953B4615222146314804F056
:101E600017F943460095152221462E4804F010F933
:101E7000CDF800903346152221462A4804F008F98F
:101E80000095052315222146264804F001F9A723D1
:101E90000093152206232146224804F0F9F8202356
:101EA00000931522072321461E4804F0F1F84FF055
:101EB000C20808231522214600941A4804F0E8F8C5
:101EC000092315222146CDF80080164804F0E0F8D9
:101ED0000A23152221460094124804F0D9F80B2356
:101EE0001522214600970F4804F0D2F800950C23E4
:101EF000152221460B4804F0CBF8CDF800A00D23A5
:101F000015222146074804F0C3F806230093152242
:101F10000E232146034804F0BBF800950F23152239
:101F2000214601E018B20020CC4804F0B1F8A72304
:101F3000009315224B462146C84804F0A9F8112306
:101F4000152221460094C54804F0A2F81223152258
:101F50002146CDF80080C14804F09AF813231522D9
:101F600021460094BD4804F093F81423152221461D
:101F70000097BA4804F08CF815231A4600952146BC
:101F8000B64804F085F8CDF800A0162315222146A6
:101F9000B24804F07DF80723009315221723214649
:101FA000AE4804F075F80095182315222146AB4879
:101FB00004F06EF8A7230093152219232146A748A1
:101FC00004F066F81A23152221460094A34804F071
:101FD0005FF88223009315221B2321469F4804F0BB
:101FE00057F81C231522214600949C4804F050F811
:101FF000FF234FF00509009315221D232146974822
:1020000004F046F84FF0600A1E2315222146CDF851
:102010000090924804F03CF81F2315222146CDF889
:1020200000A08E4804F034F82023152221460097A2
:102030008A4804F02DF8009521231522214687486F
:1020400004F026F87C23009315225B462146834842
:1020500004F01EF823231522214600947F4804F043
:1020600017F8242315222146CDF800807B4804F080
:102070000FF82523152221460094784804F008F82B
:102080002623152221460096744804F001F84FF0EB
:10209000700B2723152221460097704803F0F8FFA4
:1020A000282315222146CDF800B06C4803F0F0FF3C
:1020B0007425292315222146CDF80090674803F0A6
:1020C000E7FF00952A2315222146644803F0E0FF2C
:1020D0008D23009315222B232146604803F0D8FF5F
:1020E0002D231522214600945C4803F0D1FF2F23B5
:1020F00015222146CDF80080584803F0C9FF30234F
:10210000152221460094554803F0C2FF31231522C1
:1021100021460096514803F0BBFF32231522214689
:1021200000974E4803F0B4FF332315222146CDF823
:1021300000B04A4803F0ACFF072300931522342374
:102140002146464803F0A4FF009535231522214679
:10215000424803F09DFF8D2300931522362321462C
:102160003E4803F095FF37231522214600943B4853
:1021700003F08EFF2023009315225E23214637486B
:1021800003F086FF3123009315225F232146334855
:1021900003F07EFF542300931522534621462F4817
:1021A00003F076FF762300931522612321462B4806
:1021B00003F06EFF982300931522622321462748DF
:1021C00003F066FFFE2315222146CDF80090234838
:1021D00003F05EFF1723009315224B4621461F484C
:1021E00003F056FF2A231522214600961B4803F0D0
:1021F0004FFF9123152221460094184803F048FF11
:10220000FE23152221460094144803F041FF342395
:10221000152221460094114803F03AFF4346152247
:10222000214600940D4803F033FF03AB01932A23AA
:102230000093392233462146084803F03AFF04ADA3
:102240002B2300933922334621460195034803F09E
:1022500030FF11234A46214602E000BF18B2002099
:102260000094BE4803F014FF782003F03DF8C82323
:102270000093152251232146B84803F009FF00942A
:1022800028234A462146B54803F002FF00B100BEAC
:10229000B24B06941B68B24CD3F80424B14E42F002
:1022A0000802C3F80424D3F8043403F008030693A7
:1022B0001422002111A8069B20F027FD204626604D
:1022C00005F04EFB234600B100BE4FF080701A218E
:1022D0000022C3E9030102244FF0040B4FF08051A8
:1022E0009F481E60C3E901B2C3E90542C3E9072460
:1022F0005A62C3E90A121A6305F0CAFA00B100BEB5
:10230000994B149341F2883203F57F0311A9944845
:102310001394CDE91144159305F098FC00B100BE6B
:10232000662201240023CDE9362434A941F2883203
:102330008B483B93CDE93433CDE938333F93429317
:1023400045934693479305F01EFB002800F0098251
:1023500000BE012002F0C8FF00234FF440524FF0AE
:102360001009CDE928234FF48002CDE91A2901266E
:102370004FF0060941F2883220A979482593CDE92A
:1023800020332B933093CDE932331993CDE9229644
:10239000249327932E93319305F0F5FA002840F00B
:1023A000E88002244FF0050A4FF0807841F288322D
:1023B00020A96B48CDF888A0CDE91744CDE92E8639
:1023C00005F0E1FA002840F0D48041F2883217A9E4
:1023D000634805F0BAFB002840F0CB804FF440730F
:1023E0004FF480767227CDE9263641F288320723F2
:1023F00020A95B4822972B7005F0C5FA002840F011
:10240000B88041F288322946554805F004FB00287F
:1024100040F0AF8027902E9041F2883220A950489A
:10242000CDF8889005F0AFFA002840F0A28041F284
:10243000883220A94A48CDF888A0CDF8B88005F0A8
:10244000A2FA002840F0958041F2883217A944484A
:1024500005F07BFB002840F08C80CDE9260641F298
:10246000883220A93E4822972C7005F08CFA00286B
:102470007FD141F288322946394805F0CCFA00284C
:1024800077D1282002F030FF00230422CDE9343335
:1024900040F2FA5C3A933F9347930823CDE936C262
:1024A000399310224FF4006338924FF4806E4FF44A
:1024B00040523D934FF00063CDE93BE243944FF02F
:1024C00080624493264C42924FF00053CDF8149111
:1024D0004693012002F008FF41F2883234A92046D9
:1024E00005F051FA002844D141F288320EA9204665
:1024F00005F0D5FA00283CD19DF8383013F00103DF
:10250000E7D147F28E110422CDE922121022249243
:102510004FF4806227922B704FF0806208232E9236
:10252000259306224FF400633192299302224FF043
:1025300000632F92309341F288324FF0005320A96C
:102540000748329305F01FFA98B941F288322946BC
:10255000034805F0A4FA60B908E000BF18B20020F3
:10256000A4B10020001000A0020001002B78022B73
:1025700000D000BE40F2F96204240023CDE93624E5
:102580001022CDE9343338923B933F9342934593E5
:102590004693479341F28832082334A989483993F6
:1025A00005F0F1F9002840F00A8140F2FA53369321
:1025B0004FF480674FF44053CDE93B734FF0806395
:1025C0004293022343934FF400633D934FF0006323
:1025D000449345944FF000537A4C3A90469301202F
:1025E00002F082FE41F2883234A9204605F0CBF990
:1025F000002840F0E48041F2883220A9204605F00E
:102600004EFA002840F0DB809DF880309E07E6D52A
:1026100000234FF0010B04211022CDE934B33F9386
:1026200047934EF61163CDE937124FF480604FF4B3
:10263000405236930823CDE93B0239934FF0806234
:102640004FF4006342923D9306224FF0006345929F
:10265000449341F288324FF0005334A959484693CD
:1026600005F091F900B100BE02233493002441F239
:10267000ED2341F2883234A952483693459405F04F
:1026800082F900B100BE20A94E48209405F0AFFAAF
:1026900000B100BE4C48DFF87C914FF4E133C0E953
:1026A00000930C220023C0E902330361C0E9052333
:1026B000C0E90733C0E9093307F08CF900B100BE67
:1026C0000021414807F007FA00B100BE00213E4852
:1026D00007F025FA00B100BE3B4807F0E1F900B170
:1026E00000BEFDF786FF07F03FFA0121374A384D5B
:1026F000384C084607F0F2FA01212860364A0846AD
:1027000007F0ECFA0121354A2060084607F0E6FAA6
:10271000334B00211860286807F036FB0021206841
:1027200007F032FB2F4A3048002107F067FA2F4BA1
:102730002F4A186000212F4807F060FA2E4B2F4ACD
:10274000186000212E4807F059FA2E4B2E4A1860C7
:1027500000212E4807F052FA2D4B186007F02EFA90
:10276000FEE7992341F2883234A91648369305F0E2
:102770000AF900287FF4ECAD052336934FF08073FF
:1027800042934490CDE9200422904FF480034FF00F
:10279000100A41F2883234A90A484394CDE9233A19
:1027A00005F0F1F800287FF4D3AD41F2883220A97A
:1027B000044805F0CAF900283FF4CBADC8E500BED7
:1027C00026E700BFA4B10020CCB0002000410208E1
:1027D00018B300200CB30020C8410208344102089D
:1027E00068B00020DC400208411400087CB30020DF
:1027F000D84102083507000834B200201041020811
:10280000D528000814B300204441020849140008E8
:1028100010B30020004800407FB50C4B0C48DA6C28
:1028200042F00202DA64DB6C03F002030093009BC7
:1028300004220123CDE9012302210023CDE9033144
:1028400001A903F01BFD07B05DF804FB0010024076
:102850000004004810B5084C01220421204603F072
:102860007BFE012002F040FD204600220421BDE84D
:10287000104003F071BE00BF0004004810B586B0E0
:1028800006AC012304F8012D40F6B832CDE901323F
:1028900000940A460146024804F03CF806B010BD18
:1028A00058B100207FB506AA002302F8013D40F68A
:1028B000B83C01230092CDE9013C0A460146044898
:1028C00004F0DCF89DF8170007B05DF804FB00BFCA
:1028D00058B10020F8B5154F154D38684FF0FF314D
:1028E00007F052FA072002F067FD08218420FFF765
:1028F000D9FFC207044606D540F23E2002F088FC0C
:10290000064602F08DFC34F0010205D002F0FE0212
:1029100044218420FFF7B2FF072002F03FFDB305FA
:10292000DBD5286807F06CFAD7E700BF18B30020A2
:102930000CB300201FB540F6B834CDE90134009245
:1029400001230A460146024804F098F804B010BD7D
:1029500058B1002002F0C8BC30B5184C1848E36CE0
:1029600043F00203E364E36C89B003F002030193D4
:102970000422019B0123CDE9032303A9002302259F
:10298000CDE9055303F07AFC072002F015FDE36C56
:102990000C4843F48073E364E36C0B4C03F48073E2
:1029A00029460293029B03F043FD204603F099FF62
:1029B000204600F053F909B030BD00BF00100240BE
:1029C000000400480020004858B10020014B18685E
:1029D00007F016BA18B3002010B50C4CB4F801304B
:1029E000E2785BBA9BB242EA0322237843EA0223ED
:1029F000074A1360074B186807F002FA21460422C1
:102A00000548BDE8104006F0FFBC00BF882A002042
:102A1000842A002068B00020CCB000200268034B5C
:102A20009A4201D102F04EBC704700BF0010004036
:102A300000BE70470D4B1A6E42F001021A661A6E04
:102A400082B002F001020092009A9A6D42F0805228
:102A50009A659B6D03F080530193019B00220F2127
:102A60006FF0010002B002F065BC00BF0010024030
:102A70000268084B9A4282B00AD1A3F500539A6CBF
:102A800042F480529A649B6C03F480530193019B3F
:102A900002B070470030024007B50E4B02689A4200
:102AA00015D1A3F5204305219A6C42F400329A64B3
:102AB0009B6C03F40033019300225A20019B02F027
:102AC00039FC5A2003B05DF804EB02F067BC03B098
:102AD0005DF804FB00B0024010B5044698B0142223
:102AE000002102A820F011F922681F4B9A4238D128
:102AF00007A805F001FF089B53B901214FF480326C
:102B000007A8CDE90712119305F02EFB00B1FEE7EF
:102B1000164B17481A6E42F000621A661A6E02F0DF
:102B200000620092009ADA6C42F02002DA64DB6CF8
:102B300003F0200301934FF40062019B0223CDE9CF
:102B4000022300240B2302A90693CDE9044403F0D9
:102B500095FB4E202246052102F0ECFB4E2002F0B0
:102B60001DFC18B010BD00BF006C014000100240F9
:102B7000001400480268084B9A4282B00AD1A3F5BB
:102B800030439A6C42F480229A649B6C03F4802355
:102B90000193019B02B0704700C002402DE9F04153
:102BA000044688B01422002103A820F0AEF8226861
:102BB000264B9A4247D1264CE36C43F00203E36470
:102BC000E36C03F002030093009BE36C43F04003CB
:102BD000E364E36C03F040030193019B4FF01208A0
:102BE00005F034FA012740230326042503A91948D8
:102BF0000795CDE90338CDE9057603F03FFB4FF4A7
:102C0000005303A914480795CDE90338CDE90576AB
:102C100003F034FBA36D43F40013A365A36D03F429
:102C200000130022052102931F20029B02F082FB69
:102C30001F2002F0B3FB20200022052102F07AFBC6
:102C4000202002F0ABFB08B0BDE8F081005400404A
:102C500000100240000400480018004808B502684F
:102C60000C4B9A4215D10C4A0C48936D23F4001377
:102C70009365402103F0DCFB4FF40051084803F05A
:102C8000D7FB1F2002F098FB2020BDE8084002F08F
:102C900093BB08BD005400400010024000040048EF
:102CA0000018004807B5124B02689A421DD103F57F
:102CB000284305211A6E42F080621A661B6E03F0EB
:102CC0008063019300225B20019B02F033FB5B20B9
:102CD00002F064FB002205215C2002F02BFB5C204B
:102CE00003B05DF804EB02F059BB03B05DF804FBE0
:102CF0000068014008B50268084B9A420CD1084AA6
:102D0000136E23F0806313665B2002F055FB5C209A
:102D1000BDE8084002F050BB08BD00BF006801409C
:102D200000100240F0B504468DB01422002107A81F
:102D30001FF0EBFF22683A4B9A426ED1394CE36C9C
:102D400043F48013E364E36C03F480130093009B6B
:102D5000236D43F480732365236D03F48073019323
:102D6000019B236B43F480732363236B23F48073F1
:102D70002363E36C43F48013E364E36C03F4801394
:102D80000293029B236D43F480732365236D03F448
:102D900080730393039BE36C43F48073E364E36CFD
:102DA00003F480730493049BE36C43F04003E364F7
:102DB000E36C03F040030593059B05F047F9E36CD2
:102DC000194843F08003E364E36C03F08003069347
:102DD0000227002603250524069B0B944FF4646309
:102DE00007A9CDE90737CDE9096503F047FA4FF4A4
:102DF000164307A90D480B94CDE90737CDE90965BE
:102E000003F03CFA4FF4E06307A909480B94CDE9BD
:102E10000737CDE9096503F031FA0DB0F0BD00BF09
:102E2000001000A0001002400020004800180048D8
:102E3000001C004808B50268104B9A421CD103F1EF
:102E4000204303F500334FF46461DA6C0C4822F43C
:102E50008012DA641A6D22F480721A6503F0E8FABF
:102E60004FF41641074803F0E3FA4FF4E0610648D7
:102E7000BDE8084003F0DCBA08BD00BF001000A0A8
:102E80000020004800180048001C004830B50546E6
:102E900089B01422002103A81FF037FF2A681E4BB7
:102EA0009A4236D103F5E43303219A6D1B481C4C3A
:102EB00042F480229A659A6D02F480220192019A6E
:102EC000DA6C42F00202DA64DB6C03F00203029374
:102ED0004FF44062029B0223CDE903230723CDE98F
:102EE000061303A903F0CAF90E481C23C4E9000322
:102EF000802200232046C4E90233C4E90423C4E944
:102F00000633236202F00AFB08B1FFF791FDAC67BC
:102F1000A56209B030BD00BF004800400004004871
:102F20006CB000200800024010B5014688B00022B5
:102F3000362002F0FFF9362002F030FA144B154C1F
:102F40009A6D42F010029A659B6D03F01003029394
:102F500001A903A8029B05F039FD05F0A9FC0E4B61
:102F6000236040F2E733E3600C4BB0FBF3F0013831
:102F70000023606020462361A36006F001FA20B9B7
:102F8000204606F0A9F808B010BD0120FBE700BFFD
:102F90000010024080B300200010004040420F00AB
:102FA0007047FEE7FEE7FEE7FEE77047022003F00A
:102FB000E1BA0000014802F09ABB00BF6CB00020EB
:102FC000014803F0A0BE00BF58B10020014804F042
:102FD000FEB800BF58B10020014806F0BBB800BFE2
:102FE00080B30020014802F020BE00BF18B20020CC
:102FF000014802F008BC00BF1CB30020014804F0E7
:103000006EBA00BF64B20020FFF7F8BF012070471E
:1030100008B51FF023FE162303604FF0FF3008BDF4
:1030200008B51FF01BFE16230360FEE770B50E46C1
:1030300015460C46A31B9D4201DC284670BDAFF32C
:10304000008004F8010BF5E770B50E4615460C46F6
:10305000A31B9D4201DC284670BD14F8010BAFF3A1
:103060000080F5E74FF0FF3070474FF400534B609E
:1030700000207047012070470020704708B50A4BB8
:103080001968024609B90949196018686946024475
:103090008A4206D91FF0E2FD0C2303604FF0FF3097
:1030A00008BD1A60FCE700BF942A002018B4002075
:1030B000704710B5042104461EF0A4FF204610BD41
:1030C00008B5032913D8DFE801F002060A0E01F063
:1030D00019FB006808BD01F015FB4068FAE701F034
:1030E00011FB8068F6E701F00DFBC068F2E70020F5
:1030F000F0E70000004870471042020805207047C2
:1031000013B5002249B102AB019203F8052D026804
:10311000946801AAA04702B010BD0846FBE74089A9
:103120007047808970478088704783798088184409
:1031300080B27047C07900F07F007047C079C00945
:103140007047704710B5082104461EF05BFF20460B
:1031500010BD704700F596730868496803C370474F
:103160007047704741607047704701230372704792
:10317000704770477047704770477047044B084668
:103180001988036849421B6D002209B2184700BF25
:10319000A0AD002030B4C56844686A100346ED074E
:1031A00004EB02009B6848BFA25830BC48BFD3580C
:1031B000184743682BB183682BB9C06800F0010041
:1031C0007047184670470120704700000B6808469A
:1031D00002491B6DB1F9001000221847A0AD002074
:1031E00030B4C56844686A100346ED0704EB02007A
:1031F0009B6848BFA25830BC48BFD35818474368A3
:103200002BB183682BB9C06800F0010070471846E5
:1032100070470120704710B4C468416862100346CB
:10322000E40701EB02009B6848BF8A585DF8044B35
:1032300048BFD358184743682BB183682BB9C0687F
:1032400000F001007047184670470120704710B524
:103250000C2104461EF0D6FE204610BD10B54FF4DA
:10326000AC7104461EF0CEFE204610BD10B51021F4
:1032700004461EF0C7FE204610BD10B5542104467A
:103280001EF0C0FE204610BD10B5102104461EF0F1
:10329000B9FE204610BD10B5542104461EF0B2FE02
:1032A000204610BD10B5102104461EF0ABFE20468E
:1032B00010BD10B50DF026FC0368BDE810401B6B77
:1032C0001847826B8A4210B40B4609D00A68B0F9DD
:1032D0005010146D1846002223465DF8044B184721
:1032E0005DF8044B7047826B8A4210B40B4609D0DC
:1032F0000A68B0F95010146D1846002223465DF894
:10330000044B18475DF8044B70470000054B1B78D1
:103310003BB143682BB11A6800F10C01126E1846DC
:1033200010477047ABAD0020054B1B783BB143689D
:103330002BB11A6800F10C01126E18461047704745
:10334000ABAD00201F4B1B7810B5044613B9012309
:10335000037210BD90F84D0094F84C300130C0B2AB
:10336000984284F84D0024D8B4F94E2000210FF083
:10337000E0F883B213F0010221D04FF6FF7100286C
:10338000D8BF0A461344A4F85030B4F85010238A2A
:10339000C91A09B2A4F8501004F10C0000220EF072
:1033A00084FB6068036804F13C015B6FBDE810407A
:1033B000184701232372002384F84D30C9E7A4F88D
:1033C0005000E2E7ABAD00201F4B1B7810B5044660
:1033D00013B90123037210BD90F84D0094F84C30DE
:1033E0000130C0B2984284F84D0024D8B4F94E2080
:1033F00000210FF09EF883B213F0010221D04FF6A6
:10340000FF710028D8BF0A461344A4F85030B4F81E
:103410005010238AC91A09B2A4F8501004F10C0004
:1034200000220EF042FB6068036804F13C015B6F10
:10343000BDE81040184701232372002384F84D3063
:10344000C9E7A4F85000E2E7ABAD002010B5044690
:10345000D0F83C0158B10368DB68984738B1D4F81C
:103460003C0103689B6898470023C4F83C3110BDB9
:103470001FB50C4B1B7804468BB10B4B1C22CDE9BE
:1034800000300123CDE902234068036869465B6F81
:1034900098476068036804F10C01DB6D984704B03D
:1034A00010BD00BFABAD0020504302081FB50C4B50
:1034B0001B7804468BB10B4B1C22CDE90030012355
:1034C000CDE902234068036869465B6F98476068EE
:1034D000036804F10C01DB6D984704B010BD00BF18
:1034E000ABAD00200C43020870B5036804465B6B6B
:1034F000154698472368294620469B6BBDE87040D7
:1035000018470000F8B5044617460E460DF062FB5A
:10351000144BC4F854611C60134E144B23600025F7
:103520003068C4F84851C4F84C51114BC4F84031CC
:103530000368C4F838519B68C4F83C512946C4F864
:103540004451C4F850719847284601F091F8336807
:1035500093F876200AB1D86C00B9986815F013F981
:103560002046F8BD18AE0020ACAD0020A4420208F1
:103570008C420208064BC0F848310023C0F84C3199
:1035800000F5A073C0F84401C0F83C31704700BF9B
:1035900015370008064BC0F848310023C0F84C31FD
:1035A00000F5A073C0F84401C0F83C31704700BF7B
:1035B000DD380008064BC0F848310023C0F84C3114
:1035C00000F5A073C0F84401C0F83C31704700BF5B
:1035D000A93A00082DE9F04707469068DDF820A0D9
:1035E000994603681B6A884615469847B0F5F47FEC
:1035F00005D2424B424AA72142481FF0FDFA6868B3
:1036000003681B6A98470F2803D83F4B3C4AA82100
:10361000F2E7E86803681B6A98470B2803D83B4B1E
:10362000374AA921E8E70DF06DFA0DF0B9FAD9F89B
:10363000000010B10368DB689847D9F8000010B1AA
:1036400003681B689847386810B103685B6998473E
:10365000D8F8000010B103685B689847386810B16B
:1036600003681B689847D8F8000010B103689B688E
:103670009847E868036800215B6A9847044620B1D0
:10368000002343600372224B0360A8680368002193
:103690005B6A9847064608B101F0CCF86868036891
:1036A00000215B6A9847054610B1314601F08EF85B
:1036B000C9F80040C8F800503E60E5B12B1DCAF8BB
:1036C00000303368C5F808A03046F563DB689847DA
:1036D0002B6828461B689847214630460EF023FF8A
:1036E000236820461B699847236820465B699847F2
:1036F0002846BDE8F0872B46E1E700BF8C4302086F
:10370000A74502081A440208614402080445020859
:10371000E842020807B5D0F854310093D0F85021A0
:10372000044B00F59C710448FFF754FF03B05DF8AB
:1037300004FB00BF0CAE002008AE00202DE9F84FBE
:1037400007469068994603681B6A8846154698475D
:10375000B0F5F47F05D2574B574AA72157481FF0C1
:103760004BFA686803681B6A98470F2803D8544BC4
:10377000514AA821F2E7E86803681B6A9847532872
:1037800003D8504B4C4AA921E8E70DF0BBF90DF0E6
:1037900007FAD9F8000010B10368DB689847D9F838
:1037A000000010B103681B689847386810B10368BF
:1037B0005B699847D8F8000010B103685B689847C8
:1037C000386810B103681B689847D8F8000010B13A
:1037D00003689B689847E868036800215B6A98471C
:1037E000044678B306464FF0000B374BC0F804B0E0
:1037F00080F808B046F80C3B30460AF067FD334BC2
:10380000A663C4E90F3420220123C4E91123142341
:10381000A4F84C302E4BA4F850B01B7893B1DFF8CD
:10382000B8A02C4ABAF90010B2F90020C4F810B0C0
:103830003046FFF759FE30460AF0C4FCBAF80030B3
:10384000A4F84E30A868036800215B6A98470646D2
:1038500008B100F0EFFF6868036800215B6A9847D1
:10386000054610B1314600F0B1FFC9F80040C8F874
:1038700000503E60DDB12B1D0A9A13603368AA60C8
:103880003046F563DB6898472B6828461B689847E5
:10389000214630460EF047FE236820461B699847B4
:1038A000236820465B6998472846BDE8F88F2B4679
:1038B000E2E700BF8C430208AB4602081A44020844
:1038C00061440208044502086843020850430208A4
:1038D000ABAD0020A2AD0020A0AD002007B5D0F810
:1038E00054310093D0F85021044B00F59C710448EA
:1038F000FFF724FF03B05DF804FB00BF0CAE00200F
:1039000008AE00202DE9F84F0746906899460368F5
:103910001B6A88461546984741F68713984205D892
:10392000574B584AA72158481FF066F96868036842
:103930001B6A98470F2803D8544B524AA821F2E734
:10394000E86803681B6A9847532803D8504B4D4AD0
:10395000A921E8E70DF0D6F80DF022F9D9F800001A
:1039600010B10368DB689847D9F8000010B103680C
:103970001B689847386810B103685B699847D8F8A6
:10398000000010B103685B689847386810B103689D
:103990001B689847D8F8000010B103689B689847E7
:1039A000E868036800215B6A9847044680B30646CE
:1039B0004FF0000B374BC0F804B080F808B046F861
:1039C0000C3B30460AF082FC334BA663C4E90F344B
:1039D00020220123C4E911231423A4F84C302F4BD7
:1039E000A4F850B01B789BB1DFF8B8A02C4ABAF904
:1039F0000010B2F90020C4F810B03046FFF774FD93
:103A000030460AF0DFFBBAF800305B42A4F84E30D3
:103A1000A868036800215B6A9847064608B100F071
:103A20003DFF6868036800215B6A9847054610B14E
:103A3000314600F019FFC9F80040C8F800503E6058
:103A4000DDB12B1D0A9A13603368AA603046F56316
:103A5000DB6898472B6828461B6898472146304604
:103A60000EF061FD236820461B69984723682046B5
:103A70005B6998472846BDE8F88F2B46E2E700BF10
:103A80008C430208CA4702081A440208614402082B
:103A900004450208244302080C430208ABAD002091
:103AA000A2AD0020A0AD002007B5D0F8543100939E
:103AB000D0F85021044B00F59C710448FFF722FF19
:103AC00003B05DF804FB00BF0CAE002008AE002080
:103AD000006A704770478B8880690A68DB0A50F873
:103AE00023001044704710B5C2B1137BB3B1547BAF
:103AF000D27A240204F4E0641443C26998B202EB5F
:103B0000840213888B4202D192F9020010BD05D8BD
:103B1000013880B204320028F3D1F7E70020F5E73E
:103B200010B5242104461EF06DFA204610BD000099
:103B300030B589B00446BDF850500695BDF84C50DC
:103B400005959DF8405004959DF83C5003959DF8CF
:103B5000385002959DF8345001959DF830500095ED
:103B60000EF034F8054B2360119BA361129BE361B7
:103B7000159B2362204609B030BD00BFF4480208FF
:103B80000020704781807047C18070470181704775
:103B90004181704770477047704770477047C388CE
:103BA000D21A8388C91A036810B41B6D5DF8044BE0
:103BB00012B209B218474FF6FF7383814FF0FF33FB
:103BC00003621368C36110607047704770477047A5
:103BD0007047704790F825201AB190F8242002B160
:103BE0001860704770477047704730B4C5684468C4
:103BF0006A100346ED0704EB02009B6848BFA25819
:103C000030BC48BFD358184743682BB183682BB9E1
:103C1000C06800F0010070471846704701207047E7
:103C200010B5102104461EF0EDF9204610BD10B568
:103C30004FF4F47104461EF0E5F9204610BD9830AB
:103C4000884208B505D10CF05DFFBDE80840FFF7DC
:103C5000B1BC08BD094A026000228280C280028194
:103C600042818281C28102824282C0E90522C26110
:103C700080F82420012280F82520704790660208F1
:103C800070B503680446DB6A1546984723682946E1
:103C900020461B6BBDE87040184770B504461E46B1
:103CA000BDF91050FFF7ECFF2368314620465A6BF0
:103CB00090472368294620469B6BBDE87040184713
:103CC00010B52622044600211FF01FF82046FFF7FA
:103CD000C1FF044B2360FF2384F826300023A36236
:103CE000204610BD805F0208018FF8B54FF6FF73C4
:103CF0009942064632D01B4B1B682BB91A4B1B4A04
:103D0000B1211B481EF078FF1A4A12888A4203D854
:103D1000194B164AB221F4E713F81120174B1B6810
:103D200053F82250164B186800F0DCFC2B6807464D
:103D300001469B6A284698472B6804461B6C394607
:103D4000284698472B6814FB00F45B6A39462846DE
:103D50009847E4B2204486F84500F8BD002380F877
:103D60004530FAE71CAE00205B4902084C4B0208C4
:103D70009D49020820AE0020E449020824AE00203C
:103D800028AE002010B52622044600211EF0BDFFFB
:103D90002046FFF75FFF094B2360094BA3624FF6F4
:103DA000FF73A3854FF47F020023C4E90C3284F82B
:103DB000383084F83930204610BD00BFD85E020884
:103DC0007C42020813460C4A70B5146805462CB9AB
:103DD0000A4B0B4A0B4835211EF00EFF94F8762053
:103DE0000AB1E06C00B9A0680268946A0A46A44669
:103DF0002946BDE870406047ACAD0020364A020855
:103E0000F04A0208794A02082DE9F04F04468BB0C7
:103E1000A14600250EF00CFA954BE56349F8403BAE
:103E20004846FFF74DFF04F16C0304F1980818466B
:103E30000493FFF745FF40460BF060F904F1E003FF
:103E4000184604F58E7B0293FFF79CFF5846FFF758
:103E500099FF884BC4F81C3104F5AE7318460AAEBE
:103E600004F5CC77C4F8585103934FF6FF7AFFF767
:103E700089FF26222946384626F808AD1EF045FF60
:103E80003846FFF7E7FE7C4BC4F89831A4F8BEA192
:103E900084F8C0A1314638460AF0EDFF774BC4F8EC
:103EA000D8314FF4C37A764BC4F8E031CDF800A096
:103EB00053462A4629464846C4F8DC41C4F8E45132
:103EC000FFF7EBFE2A4629462846FFF77BFF5346BD
:103ED000A066CDF800A02A4629460498DFF8C4A1C0
:103EE000FFF7DBFE2A46AA21FF20FFF76BFF222205
:103EF000C4F894006E214046FFF7C2FE4FF0010364
:103F0000324607A94046ADF82030ADF81C500AF003
:103F1000E0FD4046A4F8D050FFF7E6FEFF22114630
:103F20001046FFF74FFFFF221146C4F8D400104699
:103F3000FFF748FF04F5EC73C4F8C030C4F8D800AC
:103F40006E228B210298FFF79BFE0C220F211D2071
:103F5000FFF738FF4FF00103C4F810013146029813
:103F6000A4F81451ADF82430CDF820A00AF0ADFB30
:103F70009F2284215846FFF783FE2A462946284679
:103F8000FFF720FF04F5E27305933E4BC4F84C01A4
:103F90001B68A4F850512BB93B4B3C4AB1213C481B
:103FA0001EF02AFE3B4B1B88032B03D83A4B374AA3
:103FB000B221F4E7394B0321186800F093FB384A2B
:103FC00003460A2105980FF025FE059BC4F85831D9
:103FD00058460AF05DFB022331465846ADF82430BE
:103FE000CDF820A00AF071FB0398C322DA21FFF775
:103FF00047FE2A4629462846FFF7E4FEA4F89051DA
:10400000C4F88C01042531460398ADF82450CDF84E
:1040100020A00AF05AFB40F2071238466321FFF74E
:104020002FFEADF820503146651938460AF023FFBF
:104030004946284608F042FA0499284608F03EFA14
:104040004146284608F03AFA0299284608F036FA1E
:104050005946284608F032FA0399284608F02EFA05
:104060002846394608F02AFA20460BB0BDE8F08F02
:10407000C44A0208E46102088C6202084849020846
:104080003F3C00081CAE00205B4902084C4B020874
:104090009D49020820AE0020E449020828AE002015
:1040A000584902087C42020841727047407A7047C2
:1040B00070477047704730B4C56844686A1003465B
:1040C000ED0704EB02009B6848BFA25830BC48BF14
:1040D000D358184743682BB183682BB9C06800F0E8
:1040E00001007047184670470120704710B5102135
:1040F00004461DF087FF204610BD10B541F688111B
:1041000004461DF07FFF204610BD00F51570884263
:1041100008B505D10CF0F6FCBDE80840FFF73ABA47
:1041200008BD0000044B1B6893F876200AB1D86CD8
:1041300000B99868704700BFACAD00204FF6FF7221
:1041400038B500230281104A43600260C0E903339E
:104150000446FFF7E7FF03681B6A98470B4B1B6891
:10416000B0FA80F5D86C6D0928B103681B6A9847CE
:10417000002808BF01252DB9054B064A06482F2106
:104180001EF03AFD204638BDE05B0208ACAD0020D1
:10419000944B0208884C0208F24B02082DE9F04FBC
:1041A000044687B0A04600260EF042F87F4BE66337
:1041B00048F8403B04F16C0B404604F19805FFF7CA
:1041C0007FFD5846FFF77CFD28460AF0EBFA04F520
:1041D0000E731846FF2704F515790393FFF7AEFF1A
:1041E000734BC4F83832C4F84C62C4F8506284F897
:1041F000417248460AF082FF6E4BC4F89C326E4B07
:10420000C4F8A4324FF4C37AC4F8A86204F52B7042
:10421000C4F8A04241F2DA610AF09CFF5346CDF89F
:1042200000A0324631464046FFF737FD3246314660
:104230003046FFF7C7FD5346A066CDF800A03246D2
:1042400031465846FFF729FD0DF1180A3246AA21DA
:104250003846FFF7B7FD02232AF8043DC4F894005E
:104260005146284608F026F8FB23462200931146C3
:104270002846FFF712FD7D22114628460AF07FFBF3
:10428000284655226FF054010AF0FEFB3346009693
:1042900064223146284607F065FF314628460AF079
:1042A0009DFB37230B22284603210AF053FB2846A7
:1042B00001210AF0D7FA284601210AF0D6FA284649
:1042C00001210AF0D5FAC52297211420FFF77AFDC3
:1042D00080B200F47843A4F84C02A4F84E3200F403
:1042E000FC6300F01F00A4F85032A4F852022846E4
:1042F0000AF0D4FA03680399DB6D984728460AF060
:10430000CDFA4FF43C63836328460AF0C7FA4FF4B2
:10431000E073436428460AF0C1FA5A2109F0A6FA6C
:10432000582300931E22C42328461C210AF072FA47
:10433000284601210AF09FFA204BC4F85832524611
:1043400004A901234846ADF81060ADF814300AF016
:10435000C0FB0523A4F88C324846FFF7C5FC3A465B
:1043600039463846FFF72EFD3A46C4F890023946E2
:104370003846FFF727FD261D04F52773C4F87C3265
:10438000C4F894024146304608F098F85946304641
:1043900008F094F82946304608F090F8304649462F
:1043A00008F08CF8204607B0BDE8F08F5C4C02089E
:1043B000B85B0208844B02080B4100086E00410103
:1043C0007047000030B5144D2C78BFF35B8F14F0AC
:1043D00001048BB01DD128461DF016FEC8B13F2345
:1043E00007930E4B06930E4B0E4903940122CDE921
:1043F00004430423CDE90132CDE908440A230094A3
:104400000948FFF795FB28461DF00AFE07481EF0F5
:1044100011FC05480BB030BD982A002084AC02087E
:10442000C44C0208CCAA02089C2A0020C143000800
:104430007047000030B5154D2C78BFF35B8F14F03A
:1044400001048BB01ED128461DF0DEFDD0B13F2304
:1044500007930F4B06930F4B0F491048CDE90443C8
:104460000123CDE902330423CDE9003312221423C2
:10447000CDE90844FFF75CFB28461DF0D1FD084854
:104480001EF0D8FB05480BB030BD00BFC02A00208D
:1044900088AC0208C84C0208DCAA0208C42A002022
:1044A000314400087047000030B5144D2C78BFF33C
:1044B0005B8F14F001048BB01DD128461DF0A4FDC4
:1044C000C8B13F2307930E4B06930E4B0E4903943E
:1044D0000122CDE904430423CDE90132CDE90844AA
:1044E000282300940948FFF723FB28461DF098FD78
:1044F00007481EF09FFB05480BB030BDE82A00209E
:104500008CAC0208CC4C0208D8AB0208EC2A002084
:10451000A54400087047000030B5154D2C78BFF356
:104520005B8F14F001048BB01ED128461DF06CFD8A
:10453000D0B13F2307930F4B06930F4B0F490394C2
:10454000CDE9044304220123CDE9012300930B228A
:104550003C23CDE908440A48FFF7EAFA28461DF053
:104560005FFD08481EF066FB05480BB030BD00BF7C
:10457000102B002090AC0208D04C0208E8AB0208D7
:10458000142B002015450008002070470EB403B519
:1045900003AB002153F8042B01930DF04DF902B049
:1045A0005DF804EB03B070470CB407B504AB53F8E7
:1045B000042B01930DF040F903B05DF804EB02B059
:1045C00070470000C36B10B5044673B3038E2BB95C
:1045D000184B194AC02119481EF00EFBC38D00EB81
:1045E00043035B8B0BB30EF05BFD238E012B03D8D3
:1045F000134B144AC521EEE7E28D531C9BB2092BE5
:10460000194688BFA3F10A0104EB410140F63F10AF
:10461000498B814209D10A2B04EB420228BF0023B7
:1046200004EB4303508B588351832046BDE8104070
:104630000EF01ABCD44C0208074E0208DD4C0208EA
:10464000274D0208354D02080EF0C8BB10B586B0E4
:1046500002AC84E806001A460AAB05930193099B55
:1046600000932146089B0BF0C0FD06B010BD000072
:1046700038B5D8B9114B12481B681249BBB11A683A
:104680009C681A4402605A681A440A601C446CB15F
:104690000D4B00221A8000F035F8054600F030F886
:1046A0000A4B1C600A4B1D600A4B188038BD0A4B30
:1046B00003600A4B0B600A4B1C68E8E7382B0020AC
:1046C0003C2B0020402B0020442B00201CAE00205F
:1046D00024AE002020AE0020ACAC020894AC02084E
:1046E000F8AC0208044B1B6853F82100034B1B680D
:1046F00003EB4000704700BF402B00203C2B002004
:104700000620704700487047482B002010B5FFF77F
:1047100091FE064C2060FFF7C7FE6060FFF752FE77
:10472000A060FFF7F9FEE06010BD00BF482B00203D
:10473000704710B54FF4AC7104461DF063FC204681
:1047400010BD10B50446D0F8540100F013F820460F
:10475000BDE810400CF0AEB810B50446FEF7D2FE2E
:10476000014B2360204610BDBC4E020800220260AF
:1047700070470000084B10B50446186858B1642112
:1047800005F002FB38B92068044A036811689B6889
:10479000BDE81040184710BD68B00020842A0020F2
:1047A0007047043870477047C0680368DB6A184771
:1047B000A0F10400FFF7F8BF10B5102104461DF06A
:1047C00021FC204610BDA0F10400F5E710B5002241
:1047D0008260044AC16002F108042432046042602D
:1047E00010BD00BFF84E020870477047FFF7FBB9D5
:1047F00010B5044600F5E2700023C4F8C431084A3D
:10480000436004F58E7403810B460A210FF002FA0F
:10481000204609F03DFF2046BDE810400DF015B9D7
:10482000284F020810B54FF4F47104461DF0EAFB5E
:10483000204610BD10B50446FFF7E6FA014B236091
:10484000204610BD344F0208704770470438704747
:10485000704710B5102104461DF0D4FB204610BD52
:10486000A0F10400F5E7000010B500228260044AC0
:10487000C16002F1080420320460426010BD00BF34
:10488000644F020870477047FFF713BC10B541F63C
:10489000881104461DF0B6FB204610BD10B5044635
:1048A000FFF77CFC014B2360204610BD984F0208A7
:1048B000704700207047000038B5064C2378054645
:1048C0001BB9FBF70AFF01232370A821E8B2FBF70D
:1048D00019FF38BD582B002013B500240221C0B2A7
:1048E0008DF80740FBF70EFF8DF807009DF80730A5
:1048F00003F00F038DF807309DF80730022B88BFB7
:104900008DF80740044B9DF807209DF807005A706A
:1049100000229A7002B010BD582B00200122A42161
:10492000C0B2FBF7DBBE0022A421C0B2FBF7D6BEAB
:1049300010B500220446D021C0B2FBF7CFFE2046BE
:10494000BDE81040FFF7EFBF73B5154C1546A378CF
:1049500062789A420E461FD903B3012B0CBF09217E
:10496000002104230DEB0302C0B2FBF749FF9DF8C1
:1049700004309DF805201B0203F470631343338059
:104980009DF806309DF807201B0203F47063134363
:104990002B80A3780133A37002B070BD0321E0E740
:1049A000582B00207047000010B5044C23781BB929
:1049B000FBF793FE0123237010BD00BF582B00208E
:1049C000094B1A7882420AD05A78824209D09A78E2
:1049D000824208D1022200219954FDF7BDBF002276
:1049E000F9E70122F7E770475B2B002011F0FF0287
:1049F00070B50446C1F30726C1F3074502D0542120
:104A0000FDF73CFF26B1324655212046FDF736FF23
:104A100035B12A4620465621BDE87040FDF72EBF2D
:104A200070BD08B580224021FDF728FF0A20BDE8AF
:104A30000840FDF78FBF08B540221146FDF71EFF65
:104A4000BDE80840FDF7E8BE10B504460120FDF7BB
:104A500081FFFCF763FD00212046FDF723FF10BD19
:104A600038B50D4640210446FDF71CFFB5F5803FE3
:104A70002ABF40F0090200F0F702D2B2204638BF48
:104A800042F001024021FDF7F9FE0120BDE8384067
:104A9000FDF760BF2DE9F74F4FEA122B4FEA12489E
:104AA000914612F0FF0205460C461F465FFA8BFA4C
:104AB0005FFA88F60AD00192FDF7F4FE5FB3019A1F
:104AC0000243D2B221462846FDF7D8FEBAF1000FC4
:104AD0000FD004F101095FFA89F949462846FDF72C
:104AE000E1FEDFB14AEA0002D2B249462846FDF7AC
:104AF000C5FECEB10234E4B221462846FDF7D2FE0F
:104B00007FB146EA0002D2B22146284603B0BDE892
:104B1000F04FFDF7B3BE20EA0902D2E720EA0B020C
:104B2000E2E720EA0802EEE703B0BDE8F08FF8B54F
:104B300011F0FF0407460D4603D01021FDF7B2FE29
:104B4000044615F47F4604D011213846FDF7AAFE2D
:104B5000064615F47F0003D012213846FDF7A2FE69
:104B600004EB062404EB00402840F8BDF8B511F032
:104B7000FF0407460D4603D00C21FDF793FE0446C3
:104B800025F07F4626F0FF0626B10D213846FDF7B9
:104B900089FE86B2280C000418B10E213846FDF7B4
:104BA00081FE04EB062404EB00402840F8BD10B55C
:104BB000C4B280212046FDF775FE40F00102D2B25A
:104BC00020468021BDE81040FDF758BE84B02DE995
:104BD000F84F0BAC84E80E00C4B240212046BDF86B
:104BE0002C60BDF82E50BDF830B0BDF832A0BDF835
:104BF0003490BDF83680BDF83870FDF753FE43079A
:104C000006D440F00402D2B240212046FDF736FE21
:104C10009DF846209DF8473002F0400223F07F03C4
:104C20001A439DF845305B0003F00E031A432046FB
:104C30008021FDF723FE9DF848209DF8493022F0A1
:104C40007F0203F07F031A4320468121FDF716FE01
:104C50004FEA1B2220468221FDF710FE5FFA8BF2FD
:104C600020468321FDF70AFE4FEA1A2220468421BE
:104C7000FDF704FE5FFA8AF220468521FDF7FEFD6E
:104C80004FEA192220468621FDF7F8FD5FFA89F2E6
:104C900020468721FDF7F2FD4FEA182220468821A1
:104CA000FDF7ECFD5FFA88F220468921FDF7E6FD6D
:104CB0003A0A20468A21FDF7E1FDFAB220468B210F
:104CC000FDF7DCFD9DF83A2020469021FDF7D6FD4A
:104CD0009DF83C2020469121FDF7D0FD9DF83E2017
:104CE00020469221FDF7CAFD9DF8402020469321E1
:104CF000FDF7C4FD9DF8422020469421FDF7BEFD3E
:104D0000320A20468C21FDF7B9FDF2B220468D21F2
:104D1000FDF7B4FD2A0A20468E21FDF7AFFDEAB269
:104D200020468F21FDF7AAFD9DF84A2020469621B6
:104D3000FDF7A4FD9DF84B209DF84C3022F07F023A
:104D400003F07F031A4320469721FDF797FD9DF856
:104D500044202046BDE8F84F982104B0FDF78EBDF1
:104D60000321C0B2FDF79EBD0421C0B2FDF79ABD7C
:104D700013B503230C4601AA1421C0B2FDF7DAFDD6
:104D80009DF805309DF804201B0243EA02439DF87C
:104D900006201343236002B010BD01231AB10A4656
:104DA0006C21FFF777BE0A467021FAE708B5084B79
:104DB0001A78824207D05A78824204D09B78834284
:104DC00001D0FDF729FDBDE80840FDF743BD00BF58
:104DD0005B2B002038B50C4642210546FDF762FDED
:104DE00040EA0402D2B228464221BDE83840FDF72D
:104DF00045BD10B50446FCF79DFB20460121BDE8EA
:104E00001040FFF7E7BF10B50446FCF793FB2046C0
:104E10000221BDE81040FFF7DDBF10B50446FCF7E6
:104E200089FB20460421BDE81040FFF7D3BF38B509
:104E30000C4642210546FDF735FD20EA0402D2B2B8
:104E400028464221BDE83840FDF718BD0121FFF793
:104E5000EEBF0221FFF7EBBF0421FFF7E8BF10B55B
:104E60000C460821FDF71EFD204010BD0221FFF772
:104E7000F6BF0421FFF7F3BF0A464421FDF7FEBC4D
:104E80000221FFF7F9BF0421FFF7F6BF38B50D4641
:104E900041210446FDF706FD00F0FD022A432046AD
:104EA0004121FDF7EBFC0120BDE83840FDF752BD84
:104EB00038B50D4641210446FDF7F4FC00F0FE0232
:104EC0002A4320464121FDF7D9FC0120BDE83840A6
:104ED000FDF740BD10B50F4A1378984204460CD038
:104EE0005078844209D091788C4206D013B170B1C9
:104EF00019B90223D454FCF711FB20460221FFF715
:104F0000C5FF20460121BDE81040FFF7D1BF0123B6
:104F1000F0E700BF5B2B002013460A466021FFF735
:104F2000B9BD08B513460A464C21FFF7B3FD012071
:104F3000BDE80840FDF70EBD08B513460A465021EE
:104F4000FFF7A8FD0120BDE80840FDF703BD0A46B4
:104F500001234821FFF79EBD0A4600234821FFF7A1
:104F600099BD38B504460D46172A36D8DFE812F049
:104F700021004F005F009100CB00F80018001800DE
:104F80003700400035005B005700350053004F00EC
:104F900079008200B300BC00E000E9000D011601B9
:104FA000FFF7DAFF002229462046FFF7B5FF00236E
:104FB00026E0FFF7D1FF002229462046FFF7ACFF8D
:104FC00000232A4664212046FFF764FD01232A4678
:104FD00068212046FFF75EFD0022104638BDFFF72E
:104FE000BBFF002229462046FFF796FF0123E8E792
:104FF000FFF7B2FF002229462046FFF78DFF01236D
:105000002A4664212046FFF745FD0023DFE7FFF72E
:10501000A3FF0122C7E7FFF79FFF0122CCE7FFF7BD
:105020009BFF0122E7E7FFF797FF0122DAE7FFF78F
:10503000E0FE002229462046FFF76EFF00232A46A5
:1050400064212046FFF726FD01232A4668212046D9
:10505000FFF720FD012229462046FFF762FF0122CB
:1050600030E0FFF7C6FE002229462046FFF754FF36
:105070000123E4E7FFF7BDFE002229462046FFF7A3
:105080004BFF01232A4664212046FFF703FD00233E
:10509000DBE7FFF7AEFE002229462046FFF73CFF84
:1050A00000232A4664212046FFF7F4FC01232A4608
:1050B00068212046FFF7EEFC012229462046FFF733
:1050C00030FF002229462046FFF736FF29462046BA
:1050D000FFF73DFF80E7FFF78CFE002229462046C0
:1050E000FFF71AFF0123DCE7FFF783FE00222946C2
:1050F0002046FFF711FF01232A4664212046FFF7CF
:10510000C9FC0023D3E7FFF774FE0022294620469E
:10511000FFF702FF00232A4664212046FFF7BAFC6E
:1051200001232A4668212046FFF7B4FC0022C4E789
:10513000FFF75FFE002229462046FFF7EDFE012320
:10514000E9E7FFF756FE002229462046FFF7E4FE76
:1051500001232A4664212046FFF79CFC0023E0E758
:10516000FFF747FE002229462046FFF7D5FE002321
:105170002A4664212046FFF78DFC01232A46682138
:105180002046FFF787FC002265E7FFF732FE00228A
:1051900029462046FFF7C0FE0123E9E7FFF729FE75
:1051A000002229462046FFF7B7FE01232A46642144
:1051B0002046FFF76FFC0023E0E7000070B5104DBC
:1051C0002C68DCB90F4B104E5B69842098470A208D
:1051D00000F08AF873688420984700F0FD00792871
:1051E00001D0012070BD33682E60002BF9D08420DF
:1051F00098472B680549DB68842098470020F1E731
:10520000602B00203800002084000020FFFF0300F6
:10521000024B1B6801465B6A84201847602B002004
:10522000024B1B6801469B6A84201847602B0020B4
:1052300008B5044B1B680A461B6901468420984741
:10524000002008BD602B0020034B1B680A465B69E9
:1052500001468420184700BF602B00200F49D1F879
:10526000883043F47003C1F888300D4B1A68002071
:1052700042F001021A6098601A6822F0A85222F4E3
:1052800010221A604FF48052DA601A6822F48022E9
:105290001A6098614FF000638B60704700ED00E08A
:1052A0000010024010B5032000F032F80020FDF796
:1052B0003BFE044618B9FDF7BDFB204610BD012496
:1052C000FBE70000034A044B11681B780B44136092
:1052D000704700BFCCB30020B4000020014B186819
:1052E000704700BFCCB3002038B50446FFF7F6FF87
:1052F000631C1CBF054B1B78054618BFE418FFF75D
:10530000EDFF401BA042FAD338BD00BFB40000201F
:10531000074AD36823F4E0631B041B0C43F0BF630C
:10532000000243F4003300F4E0600343D3607047AD
:1053300000ED00E0174B70B5DC68C4F30224C4F143
:105340000705042D04F1040328BF04254FF0FF36A0
:10535000062B06FA05F38CBF033C002421EA030365
:10536000A34006FA04F422EA0404002843EA0403F2
:10537000A8BF00F160404FEA0313BCBF00F00F006C
:10538000054ADBB2AABF00F56140135480F8003330
:1053900070BD00BF00ED00E014ED00E0002808DB68
:1053A0000123420900F01F0003FA00F0014B43F80B
:1053B0002200704700E100E000280DDB43090122D4
:1053C00000F01F0002FA00F02033044A42F82300E4
:1053D000BFF34F8FBFF36F8F704700BF00E100E056
:1053E00010B5044608B9012010BD437F03F0FF0249
:1053F00013B90277FDF73CFB022363772379E3B906
:105400002368134A5A619A6822F018029A606279F6
:105410002368D2B94FF0FF321A619A68616922F0AD
:1054200060020A439A609A68A16922F080020A43E6
:105430009A60012363770020D6E7D4E90212204660
:1054400000F008F80028E2D0CDE72269E4E700BFC9
:10545000B71DC10410B51F2313F1FF3306D321FA82
:1054600003F4E407F8D5082A14D002D83AB1012091
:105470000DE0102A0CD0182AF9D1062BF7D80068B5
:105480004161836823F018031A438260002010BD35
:10549000072BF3E70F2BF1E770B5D0E913456560F3
:1054A000446D14B1D0E916456560D0E9106404F08C
:1054B0001C050124AC407460046863608368102B91
:1054C0000BBFA260A160E160E26070BD104903689B
:1054D000426C8B4222F0030295BF02F180420D49DB
:1054E00002F50232891898BF8264DBB20A4AC264AC
:1054F000A3F108034FF01402B3FBF2F34FF00102E3
:1055000003F01F0302FA03F388BF81640365704749
:10551000070402401C0802408008024010B50446FF
:1055200000285DD001682F4B99424FF014004AD8F3
:105530002D4A0A44B2FBF0F292006264A3F20743E0
:105540002364022384F82530D4E902300343206920
:105550000A68034360690343A0690343E0690343A6
:10556000206A22F4FF4222F07002034313430B60CF
:105570002046FFF7ABFFA368A16CB3F5804F04BFD3
:10558000002363606268D3B20B60D4E91310013A60
:10559000032A48601FD8154A1548A0651A44013BE4
:1055A0009200012103F0030301FA03F30021626575
:1055B000E3651160436000200123E06384F8240068
:1055C00084F8253010BD0B4B0B44B3FBF0F39B006C
:1055D0006364094BB4E70023C4E91533E365EAE7E4
:1055E0000120EFE707040240F8FFFDBF3F820010F3
:1055F00040090240F8FBFDBF0004024070B590F87E
:105600002450012D044639D0012580F8245090F80B
:105610002550012D4FF000064FF002052CD180F8E7
:105620002550C6630668356825F001053560FFF72B
:1056300033FF026B0368BAB11A6842F00E021A60B7
:10564000A26C1168C90342BF116841F480711160F6
:10565000626D1AB1116841F4807111601A6842F0EC
:1056600001021A60002070BD1A6822F004021A605C
:105670001A6842F00A02E2E780F824600220F2E7AA
:1056800090F82530022B10B503D00423C36301200A
:1056900010BD03681A6822F00E021A601A6822F020
:1056A00001021A60826C136823F480731360D0E9DE
:1056B000101303F01C02012393404B60D0E9133216
:1056C0005A60436D33B11A6822F480721A60D0E9CF
:1056D00016325A60012380F82530836B002480F84D
:1056E000244013B198472046D2E71846D0E7016C12
:1056F000426C036870B402F01C020E681D6804243A
:10570000944034420ED015F0040F0BD01A68920664
:105710005EBF1A6822F004021A60036B4C6073B318
:1057200070BC184702249440344212D015F0020F86
:105730000FD01A68950606D41A6822F00A021A6079
:10574000012380F8253000234C6080F82430C36AA0
:10575000E5E708249440344211D02C070FD51C688B
:1057600024F00E041C60012303FA02F24A60C363B2
:1057700080F82530002380F82430436BCFE770BCDD
:10578000704790F82500704710B50446002836D0C1
:1057900090F8593003F0FF021BB980F85820FDF74C
:1057A0007BF9022384F859302368E069196862683C
:1057B00021F4E021024321F040010A431A60596BB1
:1057C000A069A26821F48371024321F001010A4318
:1057D0005A631A6CE168120C12040A431A64D4E981
:1057E0000402596B520542EA005221F440110A4367
:1057F0005A6300200123E06584F8593010BD012070
:10580000FCE770477047036870B55E681D68F20773
:10581000044614D5E90512D51A6822F480721A607C
:10582000C26D42F00102C26501229A60042380F831
:105830005930002380F85830436A03B19847B206C4
:1058400016D5AB0414D523681A6822F400521A60E6
:1058500020229A60E36D43F00203E365042384F899
:105860005930002384F85830636A0BB120469847BA
:10587000300716D5290514D523681A6822F400626A
:105880001A6008229A60E36D43F00403E365042381
:1058900084F85930002384F85830636A0BB12046ED
:1058A000984772070BD56B0509D523681A6822F44F
:1058B00080621A6004229A602046FFF7A2FFB007B8
:1058C00014D5A90512D523681A6822F400721A604B
:1058D00002229A60E36DE365012384F859300023C6
:1058E00084F85830236A0BB120469847F20613D546
:1058F000EB0411D523681A6822F480521A60102232
:105900009A60E36DE365012384F85930002384F83D
:1059100058302046FFF776FF70BD000090F85830F1
:10592000012BF0B54FF002033DD0182404FB010415
:105930000122D4E90B5680F85820A26B80F8593028
:10594000130543EA0643E26B1B4F646B2B43093D8F
:10595000012D43EA425302680ED804F07F463343D8
:1059600069B9516A39400B435362836A9361436B4F
:1059700023F07F43936210E043EA0463A9B1D66940
:105980003E403343D361182303FB0101012D8B6A91
:1059900013619CBF24F07F441462012380F85930C6
:1059A000002380F858301846F0BD516A39400B4347
:1059B0005362836A9361F0E7F0FFCC002DE9F04178
:1059C00007460D4614461E46FFF788FC80463B6896
:1059D0005A6FD2070AD544EA0621069C41EA0441DF
:1059E00041EA8511D9660020BDE8F081FFF776FC19
:1059F000A0EB0800B0F57A7FE9D90320F4E7037C37
:105A0000012B5FD00123037403680022C3F8C42074
:105A1000C3F8C820CA0748BFD3F8C420816142BF79
:105A20006FEA12426FEA0242C3F8C4208A0742BFFB
:105A3000D3F8C42042F4F812C3F8C4204A0742BF86
:105A4000D3F8C82042F00102C3F8C8200A0742BFB9
:105A5000D3F8C82042F00202C3F8C820CA0642BFE9
:105A6000D3F8C82042F00C02C3F8C8208A0642BF0F
:105A7000D3F8C82042F01002C3F8C8204A0642BF3B
:105A8000D3F8C82042F02002C3F8C8200A0642BF5B
:105A9000D3F8C82042F04002C3F8C820CA0542BF6C
:105AA000D3F8C82042F08002C3F8C8208A0542BF5C
:105AB000D3F8C82042F4F852C3F8C8200023037476
:105AC000184670470220704773B50D4604460028FB
:105AD00000F0A680437C0BB9FCF7FEFF0323637440
