:020000021000EC
:1020000000000120752301005D2301006D380100EF
:10201000612301006323010065230100000000002B
:102020000000000000000000000000006723010025
:1020300069230100000000006B2301006D230100F3
:102040006F2301006F230100F94701006F23010096
:102050006F2301006F230100A94601006F230100D7
:102060006F2301006F2301006F2301006F23010024
:102070006F2301006F2301006F2301006F23010014
:102080006F230100593801006F2301006F23010005
:102090006F2301006F230100056201006F2301001F
:1020A0006F2301006F2301006F2301006F230100E4
:1020B0006F2301006F2301000000000000000000FA
:1020C0006F2301006F2301006F2301006F230100C4
:1020D0006F2301006F2301006F2301000000000047
:1020E00000000000000000000000000000000000F0
:1020F00000000000000000000000000000000000E0
:1021000000000000000000000000000000000000CF
:1021100000000000000000000000000000000000BF
:1021200000000000000000000000000000000000AF
:10213000000000000000000000000000000000009F
:10214000000000000000000000000000000000008F
:10215000000000000000000000000000000000007F
:10216000000000000000000000000000000000006F
:10217000000000000000000000000000000000005F
:10218000000000000000000000000000000000004F
:10219000000000000000000000000000000000003F
:1021A000000000000000000000000000000000002F
:1021B000000000000000000000000000000000001F
:1021C000000000000000000000000000000000000F
:1021D00000000000000000000000000000000000FF
:1021E00000000000000000000000000000000000EF
:1021F00000000000000000000000000000000000DF
:10220000354936480A1A02D0072291438D4634498F
:1022100034480A1A06D00722914381F30988022222
:1022200082F3148830483149314A00F044F831488B
:102230003149324A00F03FF831483249324A00F021
:102240003AF832483249334A00F035F832483349D7
:10225000334A00F030F833483349344A00F02BF861
:1022600033483449344A00F026F8344834490022CF
:1022700000F02CF833483449002200F027F83348A6
:102280003349091A082902DB002202604160314A01
:1022900090471F481F49884205D00268043003B4A4
:1022A000904703BCF7E700208646EC46002000215B
:1022B000294A9047FEE7884207D0521A05D0037892
:1022C00001300B700131013AF9D17047884202D0D8
:1022D00002700130FAE770470000012000E00020A2
:1022E0000000012000000120607A0100800B002026
:1022F000C80B0020D0230100D0230100526501004B
:10230000607A0100800B0020800B002048660100ED
:102310004866010048660100486601004866010001
:102320004866010048660100486601005E7A0100C7
:10233000A87A0100C80B0020C80B0020C80B0020A1
:10234000B9140020BC140020BC140020BC140020D0
:10235000BC3400209D230100255D0100FEE7FEE75F
:10236000FEE7FEE7FEE7FEE7FEE7FEE7FEE7FEE745
:1023700000F002B8FFF7FCBF0F484FF00701884399
:1023800085460E4880470E48016841F4700101609F
:10239000BFF34F8FBFF36F8FFFF732BF09480A4972
:1023A0000A4A884207D0521A05D0037801300B70D0
:1023B0000131013AF9D1704700000120495E010066
:1023C00088ED00E048660100800B0020800B0020B3
:1023D000F0B595B01D46164608460C4601F06EFE57
:1023E0001A9B0D93CDE9086500252B46082205A907
:1023F00020460A958DF82C500C9501F07CFE079B29
:102400000293069B03939DF814308DF8115003F04E
:102410000302012A1DD1BDF81420059DC3F3C20398
:10242000C2F383168DF81030B20008230EA920469F
:1024300001F061FEC5F3952508AB0093324602AB6F
:102440000EA9284600F0C4FB204601F03BFE15B063
:10245000F0BD022AF8D1BDF81650C3F3C203C5F38C
:1024600089158DF810300827082D2E4628BF08261C
:102470003B4632460EA9204601F03DFEAD1B08AB9F
:1024800002AA31460EA8374400F006FC002DEBD11D
:10249000DAE70000014B01221A707047090C002096
:1024A0007047000070B5124D06460FCD88B06C46DF
:1024B0000FC495E80F00002E84E80F004FF0FF33A3
:1024C0004FF00602CDE90023CDE90233094A0A485C
:1024D0004FF0EB7308BF00226946069301F052FFEC
:1024E00008B100F05BFE054B1E7008B070BD00BF68
:1024F0004866010095240100800B0020C80B0020D5
:1025000007B5044B0093044A4023FFF761FF03B073
:102510005DF804FB1D250100C90B002038B50D4BEB
:102520000D4D002018700D4804782D5DD2B21C4668
:1025300065B1043002F0CEFD08B100F02FFE084B6B
:102540001A7812B12378002BFBD038BD0C3002F082
:1025500083FBF1E7090C002094120020800B00207F
:10256000C80B002008B50848084A0378D35C3BB183
:10257000043002F01FFDBDE808400020FFF792BFC5
:102580000C3002F0FFFAF6E7800B002094120020D6
:102590000120FFF787BF000008B5FFF7F9FF0448E7
:1025A000042100F07FFA034B01225A7108BD00BFDD
:1025B0001C660100940B0020037813F0040216D06F
:1025C00003F00303012B03D0022B09D00120704735
:1025D0000A6800880232C0F3831002440A60F5E7FB
:1025E0000B684288023303EB92130B60EEE7104650
:1025F000704700002DE9F04F87B000230446861C89
:102600000DF107000F4615468DF8073000F0B6FFB4
:10261000404A51683960936803F580735B1A9246AB
:1026200002F21C4702F5836902F21448B3421AD33E
:102630000020002D69D004F00F039B0143F0050337
:1026400063F30F00DAF80430DAB203321E444AF8BA
:1026500022009DF80700CAF8046000F0B3FF0120D3
:1026600007B0BDE8F08F0121384601F052FA484624
:1026700001F067FA404601F064FADAF808000290C7
:10268000C0B203300AEB800002A9FFF795FF029B5E
:1026900030BBDAB20AEB8202D16803919A1C013393
:1026A000DBB20AEB83030292D3F80CB001F0030310
:1026B000012B22D0022B15D08346404601F044FA6C
:1026C00010B1029BCAF808305946384601F021FA89
:1026D000DAF80830DAF8042003F580739B1AA5E7CE
:1026E000D8B2CEE7BDF80E30C3F3891303334FEAF7
:1026F0001B4B02EB93030293DFE7BDF80C30C3F3EF
:1027000083134FEA1B4B1344F5E7A40544F006007E
:1027100098E700BFDC0C0020064B074810B50022EC
:102720001A7001F084FC044610B9044801F088FDD9
:10273000204610BDDC0C0020346601009C660100C0
:1027400030B50A4C71B10A4A0A49121BD20800235B
:102750009A4201D1002030BD31F82350854202D089
:102760000133F5E7034654F83300F4E75C650100F4
:10277000FC650100800B0020094B013903EBC00010
:10278000032909D8DFE801F00A0204060420704793
:1027900000797047407970470020704702207047E9
:1027A0005C650100034BD3E90130C31A584258411C
:1027B000704700BFDC0C00202DE9F04186B0FFF728
:1027C000F1FF0546002840F0E680744CC4F8180478
:1027D000BFF34F8FA3680293DBB2033304EB830094
:1027E00002A9FFF7E9FE029B18B1D4F81824002AC9
:1027F00055D0DAB2991C013304EB8202DBB204EB50
:102800008303D268DB68049302F00303022B039274
:1028100002914FD1BDF80E306148C3F38917502F94
:102820003E4628BF502666F38F1306F10801ADF827
:102830000E3001F014FC0546002800F0978001F0EE
:102840003DFC002303A90822284601F04AFC029916
:10285000CB43DBB20133C9B20331B6EB830F4FEA8E
:10286000830804EB810122D908234246A6EB08061F
:10287000284601F036FCF6B24A4908F10803324610
:10288000284601F02EFC029B033703EB97070297C3
:10289000D4F81834002B41D1D4F8106451E06268A8
:1028A0009A4299D8A260284606B0BDE8F081082374
:1028B0003246E5E7012B59D1BDF80C303848C3F357
:1028C0008311062928BF062161F38913023189008B
:1028D000ADF80C3001F0C3FB0546002846D001F0EE
:1028E000EDFB0023082203A9284601F0FAFB00268D
:1028F000BDF80C20C2F38312B300964203F1080323
:10290000C6D202994A1CC9B20331029204EB81017A
:102910000422284601F0E5FB0136E9E7284601F0EC
:10292000D1FBFFF73FFF80F00100C5B2BBE7F368C2
:102930005B7923B1336829461B6830469847F368B2
:102940001E68002EF3D1284601F0BCFB0DF10700F4
:102950008DF8076000F012FED4F818340BB9029B12
:10296000A3609DF8070000F02DFEDAE7D4F81044CC
:1029700054B90D4B0D480E49C01AC008000440F070
:10298000020000F05DF8CCE7236820469B6898477A
:10299000E3681C68ECE7002585E700BFDC0C00203D
:1029A00034660100E80C00205C650100BC65010094
:1029B000856601002DE9F34704460E46924601A9BB
:1029C000012218469946FFF715FE1B4F10B3019DD3
:1029D0004FF00008AA1CC84508EB020123D1174894
:1029E000002101F073F880F31000000440EA144065
:1029F000E4006B1C04F03804DBB2EDB244F00104D7
:102A000007EB8303033544EA881444EA8624D8603C
:102A100047F825403B781BB1FFF7CEFE0028FBD1DD
:102A200002B0BDE8F087C9B207EB81015AF828303F
:102A3000CB6008F10108CEE7DC0C0020F810002084
:102A400000231A46FFF7B6BF07B50123019201AA7A
:102A5000FFF7B0FF03B05DF804FB07B5CDE9002335
:102A600002236A46FFF7A6FF03B05DF804FB1FB51B
:102A7000CDE90123069B039301AA0323FFF79AFFE5
:102A800005B05DF804FB1FB5CDE90023069B02935A
:102A9000079B03936A460423FFF78CFF05B05DF89C
:102AA00004FB000030B50F49D1F810240346002084
:102AB000144634B9DC6820714AB9C1F81034226078
:102AC00030BDE4682579854206D02468F1E7D268F4
:102AD000116821601360F3E701300A28E8D14FF054
:102AE000FF30EDE7DC0C0020084A38B50123D2F8AE
:102AF000104413701D4604B938BDE3685D71236846
:102B000020465B689847E3681C68F4E7DC0C00200B
:102B100007B503460846197A052911D05B7A2BB10F
:102B2000094A0A49019001F072F801980849019098
:102B300001F06DF8019803B05DF804EB01F05CB8AA
:102B4000002AF8D0F2E700BFA8660100AD660100D8
:102B5000CD66010030B5C38885B004460D4633B15B
:102B6000144A00921449154A284601F050F8217A77
:102B700005291DD0637A4BB1A088FFF7FDFD104BEE
:102B8000104953F82020284601F041F8227A0E4BD4
:102B9000A08853F8222003920021FFF7D1FD039A69
:102BA0000A490346284605B0BDE8304001F02FB879
:102BB00005B030BDA8660100B8660100B06601002E
:102BC00034670100AD66010058670100D06601005E
:102BD0002DE9F04385B01F460C9D002395F80C901D
:102BE0002B7306460C46904629463846FFF7B2FF3F
:102BF000B8F1060F09D8DFE808F00412181F2833CF
:102C000040003146284601F002F8002229463846A5
:102C1000FFF77EFF85F80C9005B0BDE8F0832268D1
:102C20003146284600F0F3FFEFE7D4E900233146B0
:102C3000284600F0ECFFE8E7A36800933146D4E9AA
:102C40000023284600F0E3FFDFE7E3680193A36871
:102C500000933146D4E90023284600F0D8FFD4E79A
:102C600023690293E3680193A36800933146D4E992
:102C70000023284600F0CBFFC7E76369039323696D
:102C80000293E3680193A36800933146D4E90023DB
:102C9000284600F0BCFFB8E708292DE9F74F804629
:102CA0000E4617461C463CD8002593F80C901D7321
:102CB00019461046FFF74EFFDFF888A0DFF888B00E
:102CC000AE4231D918F805205946204600F09FFF42
:102CD0000135082DF4D11949194DDFF870A02046AF
:102CE00000F095FF4FF0000B5E4522D918F80B203D
:102CF0007E2A05D81046019203F09AFB019A00B98A
:102D00002E225146204600F082FF0BF1010BBBF151
:102D1000080FE9D1012221463846FFF7F9FE84F871
:102D20000C9003B0BDE8F08F5146204600F06FFFD5
:102D3000CEE72946204600F06AFFE6E7E466010098
:102D4000E2660100E0660100DA660100E666010065
:102D5000054A4FF0A043105CD3F8043523FA00F085
:102D6000C04300F00100704770670100044B1A5C1B
:102D7000012393404FF0A042C2F80C35704700BFCA
:102D800070670100044B1A5C012393404FF0A0428E
:102D9000C2F80835704700BF7067010008B5002011
:102DA000FFF7F0FF0120FFF7EDFF0220FFF7EAFF3A
:102DB000BDE808400320FFF7E5BF08B50020FFF796
:102DC000D5FF0120FFF7D2FF0220FFF7CFFFBDE8BC
:102DD00008400320FFF7CABF074A4FF0A041105C2C
:102DE000D1F804350122824022EA03001340C1F8E1
:102DF0000805C1F80C357047706701000D2809D02F
:102E00000E2809D00F2809D010280CBF03204FF03E
:102E1000FF30704700207047012070470220704744
:102E2000014B185C704700BF6C670100C20708B512
:102E300001460CD54FF0A0430322C3F84427C3F842
:102E40004827C3F84C27C3F85027FFF7A7FF8B0785
:102E50000AD54FF0A0430C22C3F83427C3F8382713
:102E6000C3F83C27C3F8402708BD0000C30710B5CE
:102E700007D4F023054A4008145C23401943115439
:102E800010BD0901C9B20F23F4E700BFC81100202B
:102E900030B5094B1C78094B196800239C4202DCB1
:102EA0000022104630BD11F83350854201EBC302B9
:102EB000F7D00133F2E700BF94110020D8110020B1
:102EC00013B504460191FFF7E3FF38B143682BB116
:102ED0000199204602B0BDE81040184702B010BD6D
:102EE000034B044819680022490800F056BA00BF95
:102EF00098110020A011002010B5C0B2FFF7C8FF44
:102F00000446007801F0C6FB63785A1E53425341D1
:102F1000834208D1044BD3E90023134303D1BDE816
:102F20001040FFF7DDBF10BDC011002037B54308CA
:102F3000354AD35CC2074CBF1B0903F00F0304469C
:102F40000D46042B35D8DFE803F003252C383C0070
:102F500079B30121FFF78AFF00230DF107008DF8F7
:102F6000073000F00BFB0120A4F12003C4F1200185
:102F7000264A20FA01F100FA03F30B43A040D2E9FC
:102F8000004120430B43C2E900039DF8070000F015
:102F900019FB0EE0002918BF02212046FFF766FF4B
:102FA00007E041B10321FFF761FF01212046FFF750
:102FB00087FF03B030BD0121EFE70029F9D10421DB
:102FC000EBE709B10321E8E7FFF750FF2946204668
:102FD000FFF776FF0DF107008DF8075000F0CEFAED
:102FE0000120A4F12003C4F12001084A20FA01F1D4
:102FF00000FA03F30B43A040D2E9004124EA0000A9
:1030000021EA0303BFE700BFC8110020C011002060
:103010002DE9F041124E134F00243378A34208DC0F
:10302000114BD3E90023134318D0BDE8F041FFF75B
:1030300057BF3D6805EBC40815F8340001F02AFBC2
:1030400098F801305A1E53425341181A41424141E7
:1030500015F83400FFF76AFF0134DEE7BDE8F081C0
:1030600094110020D8110020C0110020092AF7B5C2
:1030700005460C4616463CD901F02AFAD8B11E4B3B
:103080001E481D601E4B1F4F1C701F4B002110223D
:103090001E6003F0FBF91D4B00200021C3E9000175
:1030A000013CE4B20326FF2C0BD1194A1948002138
:1030B00000F068F903E001F0CDF90028DFD003B09B
:1030C000F0BD9DF8063015F834008DF8046005EB6E
:1030D000C40223F007038DF8063001A993788DF818
:1030E00005303A4601F0FEF9013CE4B20028DAD09E
:1030F000E5E70720E3E700BFD8110020C811002052
:1031000094110020F92E010098110020C011002018
:10311000113001008067010070B5084D084E002491
:103120002B789C4201D3002070BD3368012113F835
:10313000340001F049FA0134F2E700BF9411002095
:10314000D811002073B5114D114E00242B789C42EC
:1031500014D300230DF107008DF8073000F00EFAAC
:103160000C4B00210020C3E900019DF8070000F08E
:1031700029FA094800F029F902B070BD336813F844
:10318000340001F065FA0134E0E700BF941100203B
:10319000D8110020C0110020A01100201FB500216F
:1031A000039001AA44F20100CDE9011100F004F8F6
:1031B00005B05DF804FB000010B572B6FFF794FC93
:1031C000FFF7FAFA0028FBD1104B114C1149E41A11
:1031D000E408240444F00100FFF732FC0E4B1B68A6
:1031E000DB0700D500BE0D4944F00200FFF728FCC4
:1031F000BFF34F8F0A490B4BCA6802F4E0621343D6
:10320000CB60BFF34F8F00BFFDE700BF5C650100DF
:10321000BC65010084670100F0ED00E090670100EB
:1032200000ED00E00400FA05D0E90223D1E9020133
:10323000994208BF90422CBF012000207047000037
:1032400008B50B4800F0F1FA0A4B0B49D3E900230B
:103250001218D1E9000143F100038B4208BF8242FA
:1032600003D212F1807243F100031046194608BDE3
:103270009C0B0020E01100205812002037B50546B5
:103280000C460A4801A900F0ACFB60B1057044602F
:1032900001A9064800F0CFFB18B1054800F0CAFAB2
:1032A000002003B030BD0420FBE700BF4412002023
:1032B0009C0B002038B5184B1B78044613B9002529
:1032C000284638BD0028FAD0037F03F0FF05002B05
:1032D000F5D0FFF7B5FFD4E90223994208BF904229
:1032E00014D3236903B92377D4E9053098472169BA
:1032F0000029E4D0237F03F0FF05002BDFD0D4E9C1
:103300000223521843F10003C4E902230348214673
:1033100000F0B5FFD4E700BFE8110020AC67010062
:1033200013B5114B11491868019008231048582211
:1033300000F044FB044698B90E4A0F4801A900F07A
:1033400065F9044660B90C48012100F051FA0123E7
:103350000A4A0948194600F0B3F9094B01221A70CC
:10336000204602B010BD00BFA8670100EC1100208C
:1033700044120020E53301009C0B0020FFFF7F007A
:10338000E81100203AB103685A614A1E5142514186
:103390001961002070470720704738B5037F044645
:1033A0000D4683B98261FFF74BFF2369401941F154
:1033B0000001C4E9020103B1256121460020BDE8F6
:1033C0003840FFF75BBF002038BD0023014603777C
:1033D0000120FFF753BF0000014800F026BA00BFEC
:1033E0009C0B00202DE9F04F85B0804600F008FAD4
:1033F00040B15A4AD2E9003113F1807341F1000122
:10340000C2E900310021404600F009FA38B1544EBB
:10341000336823B13068FFF74DFF0023336001218B
:10342000404600F0FCF920B1FFF70AFF4D4BC3E91D
:1034300000014D484A4F4D4EDFF8389103A900F086
:103440000AFB002845D1DFF82491454EDFF828A17A
:10345000484600F02AFF3368002875D07BB13368F6
:10346000D0E90201D3E90223994208BF90422DD24C
:1034700033681B7F1BB13168484600F000FF4846A7
:1034800000F00DFFD0E902B307460193FFF7D8FE25
:10349000019BBBEB000463EB0105012C75F10003FC
:1034A00045DBB4F5350F40D3FFF796FF304A0244B1
:1034B0004FF496030021504600F022F900283ED137
:1034C000336813B9404600F0F3F8376005B0BDE843
:1034D000F08F0378012B1DD0022B09D14FF0000A89
:1034E000304600F0DCFE002834D080F81CA0F7E75E
:1034F0003BB941680B7F23B901230B77304600F0BD
:10350000BEFE03A9184800F0D1FA03A9164800F03E
:10351000A2FA96E741683B68994202D100233B60DA
:10352000EFE7304600F0C4FEEBE7BA68C0E70021E1
:10353000504600F06AF93846FFF7BCFE01E00D285E
:10354000F9D00023336083E7002BBFD1404600F061
:10355000B3F8BBE7012389F80030D2E7E01100207F
:10356000601200205812002044120020AC670100B5
:10357000FFFFB400E81100209C0B002070B5EFF3B2
:10358000108672B60C4A946801239CB993600B4B69
:103590000B4DD3F8801029401160C3F88050D3F848
:1035A000841051604FF0FF32C3F88420047006B9D4
:1035B00062B670BD0370FAE76412002000E100E01B
:1035C000FC06FFBD084B9A6810B55AB150B9EFF32D
:1035D000108172B6054A1C6814605C68546098607B
:1035E00001B962B610BD00BF6412002000E100E026
:1035F000435882B03BB10023435043580193019B91
:10360000012002B070471846FBE70000F8B5204BD8
:103610004479204D43F824201F4A204B05EBC40475
:103620009B1A2279DB081B0432B143F002001C49CB
:10363000FFF706FA0820F8BD02680C88C2F80845B2
:1036400090F904608A7804795201002ED2B219DB15
:1036500014498F1987F800230122760904F01F040A
:1036600002FA04F441F82640427905EBC201012434
:1036700045F832000C7143F003000B49FFF7E0F905
:103680000020D8E7094904F00F040A55ECE700BF11
:1036900078120020701200205C650100CC650100EA
:1036A000B867010000E100E0DA67010014ED00E016
:1036B000036801221A607047036801225A6070474C
:1036C00073B501F15005AD000068ADB24FF4803420
:1036D0008C400026C0F80843C0F84843465101F525
:1036E000A8714559019522F07F42019D40F82120A3
:1036F000C0F844430BB1C0F8044302B070BD0000F1
:103700002DE9F74F0D4622F07F4402684FF48037D1
:1037100005F150068F408046B60002EB8500C2F8E6
:103720004873B6B2C2F80873D2F8041599464FF040
:10373000000BD0F84035C0F8401542F806B05B1ACF
:103740009259009223F07F43012B009A4FEA850A99
:103750000CD1264B4FF4806043F001039847D8F812
:10376000003043F806B09B590193019BD8F8001034
:10377000D1F80465C1F84473A31B23F07F43012BE8
:103780001CD11A4B05F5A875013443F0010341F82B
:1037900025404FF480609847D8F80030D3F80435BE
:1037A0009E4209D1D8F800300020C3F84473C3F812
:1037B000047303B0BDE8F08F0D20FAE78A44C9F125
:1037C000FF13CAF84045D1F80405221A013A22F045
:1037D0007F4203F57F439342EED3002AE2D10134C6
:1037E000CAF84045D1F804359842DAE7F06701009D
:1037F00003680222C3F8442309B1C3F804237047C5
:1038000000684FF48271FFF7F3BE4FF4803303FA80
:1038100001F10368C3F84813C3F808137047503127
:103820008900006889B2FFF7E3BE0368D3F8040596
:103830007047000090F90430002B09DB5A09012180
:1038400003F01F0301FA03F34032024941F822302A
:10385000704700BF00E100E0024B034A1B6810689C
:10386000184700BF78120020701200201EF0040FCD
:103870001CBFEFF309800AE0EFF308800549064A10
:10388000884201D8904202D88D464FF00000034B89
:10389000184700000000012000E00020C5380100AA
:1038A000BFF34F8F0549064BCA6802F4E062134329
:1038B000CB60BFF34F8F00BFFDE700BF00ED00E01E
:1038C0000400FA052DE9F3470546FFF70DF9FEF769
:1038D00073FF0028FBD12D4C2D482E4B241AE408F1
:1038E00024049F6A44F00104002D49D0AA692A49A2
:1038F0002046FFF7A9F8EB680193AB6827490093CE
:103900002046D5E90023FFF7BEF8EB690093244970
:10391000D5E904232046FFF7AAF81E4BDB6A990776
:1039200003D520492046FFF78BF8DFF88890DFF8B1
:1039300088A000264FF0010808FA06F33B4206D0A3
:1039400059F826201AB151462046FFF77DF8013676
:103950001A2EF1D13A0605D50E4B13495A6B204663
:10396000FFF772F83B0405D50A4B10499A6B2046C5
:10397000FFF76AF82846FFF793FF02B0BDE8F0872B
:103980000B492046FFF75CF8C7E700BFD46501008C
:103990005C65010000ED00E0F66701000B680100C6
:1039A000406801009B680100EA6801000A690100A3
:1039B00068680100E46D0100DF68010010B561B1C5
:1039C000B2FBF3F403FB1424A4B244B9C0E900141D
:1039D00084608281C381204610BD0E20FCE709204F
:1039E000FAE737B550E8013F9DB2C4892544848980
:1039F000A54228BF2D1B0489A54202BFBFF32F8F0C
:103A0000002207E0C5EA030540E80154002CE9D193
:103A10004FF001028DF803200193019B9DF80320D4
:103A20000B6002F0FF0322B10B880068184403B05A
:103A300030BD1846FBE70A884B889A4209D150E806
:103A4000012FC2EA024240E80123002BF7D10120F6
:103A500070470020704737B550E8023F1FFAA3F5C2
:103A6000C488A54202BFBFF32F8F00220DE0C48996
:103A700025448489A54228BF2D1BC3EA054540E89B
:103A80000254002CE8D14FF001028DF8032001937D
:103A9000019B9DF803200B6002F0FF0322B14B88CD
:103AA0000068184403B030BD1846FBE70A884B880D
:103AB0009A4209D150E8022FC2EA224240E802238A
:103AC000002BF7D1012070470020704710B5034646
:103AD00053E8000F0A4643E8002494F0000FF7D1A2
:103AE00010BD10B5034653E8002F42EA010043E839
:103AF000000494F0000FF6D110BD10B5034653E852
:103B0000000F00EA010243E8002494F0000FF6D110
:103B100010BD10B5034653E8002F02EB010043E847
:103B2000000494F0000FF6D110BD10B5034653E821
:103B3000002FA2EB010043E8000494F0000FF6D13F
:103B400010BD0121FFF7CDBF0021FFF7D6BF10B593
:103B500090B1D0E9012301689B1ADBB20A60013BF6
:103B6000DBB2FF2B026802D10020107110BD11687A
:103B70004C1C14600B70F2E70E20F7E737B50546D2
:103B800000240DF107008DF80740FFF7F7FC2A68C5
:103B90006B68116899420ED9481E106011F8014CEB
:103BA000EB68298A01FB0434AB6811791B1ADBB27C
:103BB000994238BF13719DF80700FFF703FD2046B7
:103BC00003B030BD37B5054600230DF107000C46A4
:103BD0008DF80730FFF7D2FC2A681368591C116072
:103BE000E968641A298AB4FBF1F41C709DF8070097
:103BF000FFF7E8FC03B030BD826810B504462AB177
:103C000043690168006998470023A36010BD0EB4A2
:103C100003B5039921B104AB01AA019300F076F832
:103C200002B05DF804EB03B070470A2938B50446CA
:103C30000D4602D10D21FFF7F8FFA3682268591C39
:103C4000A160D554D4E901329A4204D32046BDE89C
:103C50003840FFF7D1BF38BD2DE9F84F9846DDE970
:103C60000A43154682460F460A464FF00109AA420A
:103C70000FD2C14538BFC14613F0010B01D16CB959
:103C800000240126B8F1010F1BD908F1FF386E435B
:103C9000F8E709F10109B2FBF5F2E8E79B070ED559
:103CA000B8F1000F0CBF30262026A145E9D2013C17
:103CB00031465046FFF7B9FF002CF6D1E0E7202649
:103CC000F3E7B7FBF6F39D42E1D9DFF83C80B7FBA1
:103CD000F6F3504618F8031006FB1377FFF7A5FF1D
:103CE0003346AB42B6FBF5F6F1D2BBF1000F02D082
:103CF0000CB1A14501D3BDE8F88F20215046013C0D
:103D0000FFF793FFF4E700BF4C6E01002DE9F74F7A
:103D1000054617468846002900F0428118F8011B25
:103D200049B92B7B002B00F03B81284603B0BDE84E
:103D3000F04FFFF761BF252940F0B780002698F8C3
:103D400000302D2B424608F1010823D0302B24D01F
:103D50002B2B25D000242A2B02F1010123D13B6813
:103D60001A1D1B683A601C440A4613782E2B26D174
:103D700001324FF0000A104610F8011BA1F1300C7F
:103D8000BCF1090F1DD80A2303FB0A13A3F1300A63
:103D90000246F0E746F00106D1E746F00206CEE71C
:103DA00046F00406CBE711F8013CA3F130000928E6
:103DB000DBD80A2202FB0434303C0A46CBE74FF042
:103DC000000A12F8011B01F0FB0068289046F8D0A9
:103DD000782909D86F290CD8632962D022D82529DF
:103DE00063D0582900F0888098F80030002B95D1D6
:103DF00097E770390829F7D801A353F821F000BFDD
:103E00007B3F0100E93D0100E93D0100093F010060
:103E1000E93D0100E73E0100E93D0100E93D010007
:103E2000F93E0100642901D06929DDD13A68D2F850
:103E30000090111D89EAE9723960A2EBE9724FF036
:103E4000010B092A35DCD34538BFD3462CB1B9F173
:103E5000000F01DB720700D5013CB30702D5BAF1B0
:103E6000000F03D0F00701D44CBB0024B9F1000FC0
:103E70002DDAC9F100092D212846FFF7D6FE06F0FC
:103E80000302022A04D1BAF1000F01D11CBB0024A5
:103E9000CDE9004653460A2249462846FFF7DCFE94
:103EA000A2E73B681A1D19783A602846FFF7BDFE65
:103EB0009AE70A230BF1010BB2FBF3F2C1E7A3452A
:103EC000D4D220212846013CFFF7AFFECCE7710792
:103ED000D5D52B21D0E7A345DAD230212846013CA5
:103EE000FFF7A3FED2E73968CDE900460A1D3A6024
:103EF00053460A220968D0E739680A1D3A60CDE9BD
:103F0000004653461022F5E73B681A1D3A6016F04A
:103F10000106D3F8009028D1B9F1000F03D048462C
:103F200002F0E7FA0646B44200D904BB09F1FF39B2
:103F300019F8011F00293FF457AF2846FFF775FE17
:103F4000F6E728460136FFF770FE19F8061000293B
:103F5000F7D1A642BFF448AF002C3FF445AF202173
:103F60002846013CFFF761FEF3E70026EDE720213C
:103F70002846013CFFF759FED5E73B681A1D3A6019
:103F8000302128461C68FFF750FE78212846FFF7AD
:103F90004CFE00220823CDE90032214610227CE7A6
:103FA00003B0BDE8F08F00BF2DE9F84FB0F806A0D0
:103FB0004579D2F800B09DF828900AFB05F5043D3C
:103FC00088460BEB0301A94203F1040488BFA5EB6B
:103FD000030BB4FBFAF607460AFB1644C2F800B01E
:103FE0004EB9AAEB04055D4528BF5D46BBF1000F45
:103FF00004D1BDE8F88F3F68013EF1E7043408EBD7
:1040000006003C442A46B9F1000F0DD02146ABEB27
:10401000050B02F012FADA452E443F6855464FF080
:10402000000428BF5D46E1E701462046EFE7FFF7C1
:104030008EBDF8B546790146721E054600239342AF
:104040002D6803D30024A64202D8F8BD0133F6E759
:104050000F682846FFF7B6FD01343946F3E72DE92E
:10406000F843068ACD1C0746FFF788FD043E354419
:104070000446B5FBF6F5F0B14FF48073EDB28380E2
:10408000C680013D076081464FF00008A84512D266
:104090003846FFF773FD064648B163790133637113
:1040A00008F10108C9F8000007608146EEE72046E4
:1040B000FFF7BFFF34462046BDE8F88301210430F6
:1040C000FFF727BD10B5012104460430FFF72DFD91
:1040D00010F0FF0F04D12046BDE81040FFF7A9BF44
:1040E00010BD1FB503920022009203AAFFF75CFFE8
:1040F00005B05DF804FB1FB503920122009203AAEC
:10410000FFF752FF05B05DF804FB33DF704741DF76
:1041100070470000064B10B500241C70054B1C6056
:10412000BFF35F8F0449054800F093F8204610BDA7
:104130008512002088120020686E01007C12002089
:1041400007B500230DF107008DF80730FFF716FAC9
:10415000F1EE103A23F09F03E1EE103ABFF35F8FC8
:10416000094B4022C3F884219DF80700FFF72AFA83
:1041700002F02EF820B1FFF7CAFF03B05DF804FB90
:1041800020BF40BF20BFF8E700E100E070B5264D3A
:10419000044601212846FFF799FCBFF35F8F2E46A6
:1041A00038B9042C0AD0214B1A781AB1BFF35F8FAB
:1041B000286070BD1E4A147001221A701D4C1C4DDF
:1041C0006368BBB9FEF790FCFEF7F6FA0028FBD156
:1041D000174B1B78023B012B14D8BFF34F8F1649A6
:1041E000164BCA6802F4E0621343CB60BFF34F8FF3
:1041F00000BFFDE71B682878984788B1204600F08B
:1042000032F8DDE701F0E4FF08B1FFF77EFF4FF081
:1042100080430122C3F80025BFF34F8F20BFFDE785
:10422000BFF35F8F3060C4E7881200208512002042
:10423000841200207C12002000ED00E00400FA054A
:10424000836800225A60C3E904229A60DA601A6027
:1042500070470B684A684360934208BF00230160BF
:1042600008BF43607047436843B102689168526871
:104270000B449342436004BF00234360704770B512
:10428000446806460D46206818B1B3682946984729
:1042900018B923682B60256070BD2468F3E7436874
:1042A000186808B102681A60704743681868704758
:1042B0004368186800B97047884203D102681A60E1
:1042C0000120704703460068F4E7000010B50D496F
:1042D000A1F59472914201D800200FE08C1AE30FEF
:1042E00003EBE4035B1002EBC30452F83330834268
:1042F00005D802D204F10802ECE7606810BD21463F
:10430000E8E700BF7473010008B5FFF7DFFF024B59
:10431000002808BF184608BD377201001FB5037892
:104320008DF800304368019383688DF80830C368C6
:10433000054A0393054B684653F8213052F8211083
:10434000984705B05DF804FB8C1200209012002005
:104350001FB503788DF800304368019383688DF8AA
:104360000830C368054A0393054B684653F821306B
:1043700052F82110984705B05DF804FB8C1200201C
:1043800090120020F0B5194B90F800C091F81DE094
:1043900043F82C20164B16460A6943F82C20154B7F
:1043A00003F80CE00C4607460FCC89B06D460FC5EC
:1043B00094E80F0085E80F00CDF810C0BEF1000FA3
:1043C00009D0002E0C4A694608BF3246381D00F05D
:1043D0002DFD09B0F0BD002E084A694608BF3246DF
:1043E00007F10C0000F018FBF3E700BF901200206B
:1043F0008C120020941200201D4301005143010043
:1044000000F1804000F5C040002382B003600368E3
:104410000193019B02B07047800000F1A040D0F8EA
:10442000002722F44032C0F80027D0F8003743EAD2
:104430000141C0F800177047054B4FF0FF320728C5
:1044400043F8202084BFC01880F84820704700BF80
:104450009812002010B51A4C94F858306BBB4FF0EE
:10446000FF3222FA03F1C90748BFE11803F1010343
:1044700048BF81F83020202BF3D10021C8B2FFF7CC
:10448000DBFF01310C29F9D1042200210D4801F094
:10449000FDFF0D4BC02283F8062340221A604FF423
:1044A000BE70FFF7ADFF094B4FF00042C3F8042385
:1044B000012384F85830002010BD0820FCE700BF1D
:1044C00098120020EC12002000E100E000600040A3
:1044D000034B93F85800003818BF0120704700BF05
:1044E00098120020F0B5364D2C1894F93040002C6D
:1044F00064DA8C78C4F34004002C0BBF082300233B
:104500000C260826B34201D10420F0BD55F82370D3
:1045100001373FD12E1845F8232086F8303014B9E2
:10452000EA1882F848008A78540713D4D60733D59E
:10453000820002F1A042D2F8004724F00204C2F83F
:104540000047204EC20800F007070124BC40B75CBA
:104550003C43B4548A780C7812F0020225D09B00B8
:1045600003F1804303F5C0430202D3F8101521F490
:10457000473121F44071C3F810152404D3F8101505
:1045800002F4F85204F4403422430A43C3F81025DD
:104590000020BAE70133B5E74C7800F5E0724FF040
:1045A000A046A40046F82240CBE7083B2B4493F8F2
:1045B000501041EA841483F85040E9E70820A4E74A
:1045C00098120020EC12002038B51F4C251895F9E0
:1045D0003020072A16DD224492F848309B09032B2D
:1045E0000BD14FF0A043D3F81015C14001F00101E9
:1045F0000231BDE83840FFF70FBF012B0CBF02218D
:104600000321F6E7D3B2072B1CD8930003F18043B4
:1046100003F5C043D3F8100540F00100C3F81005BE
:1046200002F14000800080B2FFF7EAFE51B195F937
:10463000303054F823302BB1012303FA02F2034B3C
:10464000C3F8042338BD00BF98120020006000406A
:104650000E4B034493F93020072A02DD0021FFF7B7
:10466000DBBED3B2072B10D8930003F1804303F5D0
:10467000C043D3F8101521F00101C3F81015012330
:1046800003FA02F2024BC3F8082370479812002085
:10469000006000404FF0A043D3F8103523FA00F03B
:1046A00000F00100704700002DE9F74F00244E4D47
:1046B00001944FF48072012102F1804303F5C0435D
:1046C00090B21B68012B06D1D5F804330B4202D0FF
:1046D000FFF796FE0C430432B2F5907F4FEA41019A
:1046E000EAD1424B1B68012B0CD14FF4BE70FFF78F
:1046F00087FE4FF0A04344F00044D3F820250192F8
:10470000C3F8202514F0FF0F1AD0394F00250126D9
:10471000344210D0AB0003F1804303F5C043D3F81B
:104720001005D3F8101557F8253023B1C1F3014116
:10473000C0F3042098470135082D4FEA4606E7D11B
:10474000002C48DA2A4D4FF0A0482A4E4FF00009BD
:10475000012716F9013B5A1C31D0C3F3C20202A94A
:104760000A44DCB212F8042C03F03F0A03F00703FA
:1047700007FA03F31A4222D00AF5E073504658F8BC
:104780002330C3F3014BBBF1020F0CBF0321022105
:10479000FFF742FE07FA0AF3C8F8203505EB0A03D3
:1047A00093F9303055F823304BB1A109032904D0D7
:1047B000BBF1020F12D1012901D15046984709F1EE
:1047C0000109B9F1040FC4D1D8F820350193C8F814
:1047D0002035002BB9D103B0BDE8F08FBBF1030F3A
:1047E000EDD10229E8E700BF006000407C61004095
:1047F00098120020E8120020014B1B68184700BFE8
:10480000F41200200E4B984237B50C4602D000201F
:1048100003B030BD00230DF107008DF80730FEF71F
:10482000ADFE084B1D7915B901221C601A719DF867
:104830000700FEF7C7FE002DE9D01120E8E700BF12
:1048400000200040F4120020034B984201BF034BAC
:1048500000221A601A71704700200040F4120020F4
:104860000023435082B043580193019B02B070472C
:104870000A4610B54FF48E71FFF7F2FF136A916884
:10488000C95C136A01331362C0F81C1510BD8B6933
:104890000A4610B54FF4847123B9FFF7E1FFD0F851
:1048A000183510BDFFF7DCFF536AD168D0F8180542
:1048B000C854536A01335362F3E700001FB5012364
:1048C0008DF80030044BCDE90110D3E900126846A1
:1048D000904705B05DF804FBFC12002030B54C4851
:1048E000D0F8043313F4007F85B005464DD0D0F8DE
:1048F0002431002B49D04FF49271FFF7B1FF4FF4F0
:104900000173C0F80833434B93F829200AB90122F8
:1049100042603F4902228DF80020D1F88024C1F87E
:10492000802403929A690292DA6801920022C3E914
:1049300006226846D3E9001290473548D0F81C316A
:104940005BB134494A690B6A9A420A464AD991F8DE
:104950002830002B46D1FFF78BFF2D48D0F844318B
:104960008BB14FF4A271FFF77BFF2A4B93F82920FC
:104970000AB1012202609A692AB10022586AD968F4
:104980009A61FFF79BFF05B030BDD5F804335B0794
:10499000D3D5D5F80831002BCFD01E4C1C4821466A
:1049A000FFF775FF636AA2699A422346C5D1E2699F
:1049B000E1684AB12369E3600023606AA261E361B0
:1049C0006362FFF77BFFB8E794F829200AB9012258
:1049D0006A600F4A4FF40170C2F808030022586A57
:1049E0009A61EEE70A484FF48E71FFF739FF536979
:1049F000002BB2D051690291002391688DF80030EC
:104A0000019153616846D2E900139847A5E700BFBA
:104A100000200040FC1200202DE9F843544B05799A
:104A200091462C2202FB0532064692F82A200C46BB
:104A30009846002A40F098804E490068FFF7E2FE51
:104A40000746002840F0928021683368481C0BD04C
:104A50004FF0A04001228A40C0F8082501F5E0721D
:104A60004FF0030C40F822C06068421C1FBF00F5E5
:104A7000E0724FF0A04C4FF0000E4CF822E0A2691B
:104A8000C3F8242594F814C0627DBCF1010F4CEAF0
:104A90000202C3F86C25C3F81405C3F80C151DD128
:104AA000A1684A1C1FBF01F5E0724FF0A0404FF013
:104AB000000C40F822C0E268501C0BD04FF0A04C14
:104AC00001209040CCF8080502F5E0704FF0030E8D
:104AD0004CF820E0C3F80825C3F810152C236B43CD
:104AE00008EB0302C2F80490226948F80320B9F1E8
:104AF000000F21D03068247F4FF48E71FFF7B0FE95
:104B00004FF4A2713068FFF7ABFE32681A4BC2F85F
:104B10000433110B42F307326301002ADBB21EDBC0
:104B20001648841884F800330123520901F01F014C
:104B300003FA01F140F8221033680422C3F800257B
:104B40002C2303FB05830022C3E9062283F82920D6
:104B50005A61012283F82A203846BDE8F883084AC2
:104B600001F00F015354E7E70827F5E71127F3E7B2
:104B7000FC120020DD4801008000020000E100E09E
:104B800014ED00E0F8B503680479304D0022C3F855
:104B900000252C2202FB04525268A2B12C4AC3F811
:104BA00008231A0B43F30733002B0CDB02F01F0121
:104BB0005B0901228A402033264941F82320BFF3B4
:104BC0004F8FBFF36F8F0068D0F80C65D0F81415C5
:104BD000D0F80835D0F810254FF0FF37BE42C0F8A6
:104BE000147518BF06F5E076C0F80C75C0F80875A6
:104BF000C0F810751EBF4FF0A0474FF0020C47F8E9
:104C000026C04E1C1FBF4FF0A04601F5E0710227E1
:104C100046F82170511C1FBF4FF0A04102F5E07211
:104C2000022641F822605A1C1FBF03F5E0734FF0C3
:104C3000A042022142F82310FFF706FE2C2303FBBB
:104C40000454002384F82A306360F8BDFC1200206D
:104C50008402020000E100E02DE9F047204F90F8C7
:104C600004904FF02C0808FB097405466669002E75
:104C700034D162610068A16026624FF48E7184F8BD
:104C80002860FFF7EDFD2868012383602146FFF7C8
:104C9000EFFD6368A0468BB92868D4F814A0236A96
:104CA0009A4511D82A68D2F81C31002BFBD0012379
:104CB000D3602C2303FB097300225A613046BDE800
:104CC000F08794F828303BB9D0F81C31002BF8D08D
:104CD0004146FFF7CDFDE2E70F26EAE71126EDE7B3
:104CE000FC1200200023435082B043580193019BE3
:104CF00002B070471FB501238DF80030044BCDE999
:104D00000110D3E900126846904705B05DF804FB36
:104D1000281300207FB5434AD2F82461002E60D0CA
:104D200010464FF49271FFF7DDFF02238DF800303B
:104D3000D2F88034C2F880340393D2F83C35029321
:104D4000394BDA6801920022C3E906226846D3E9AA
:104D5000001290473348D0F8443173B14FF4A27138
:104D6000FFF7C0FF304B9A693AB10022C3E906222F
:104D7000D968D0F83C05FFF7BDFF2A48D0F82031AC
:104D8000ABB14FF49071FFF7ADFF0123C360264B29
:104D90005A6962B1D0F84C150291002299688DF8D9
:104DA000002001915A616846D3E9001290471D48DE
:104DB000D0F858319BB14FF4AC71FFF793FF1A4B09
:104DC0005A6962B1D0F84C150291002299688DF8A9
:104DD000002001915A616846D3E90012904704B05F
:104DE00070BDD2F81031002BB4D04FF4887110464A
:104DF000FFF778FF0C4BD2F83C0599698842A9D19E
:104E0000DC69D96864B1D2F8005225F02005C2F8F7
:104E100000521A699C61DA60DE61FFF76BFF99E767
:104E20009C61FAE700200040281300202DE9F84398
:104E30005B4B06799146242202FB0632044692F827
:104E400020200D469846002A40F0A580554900686C
:104E5000FFF7D8FC0746002840F09F8029682368A8
:104E6000481C0BD04FF0A04001228A40C0F8082512
:104E700001F5E0724FF0030C40F822C06868421C54
:104E80001FBF00F5E0724FF0A04C4FF0000E4CF841
:104E900022E0AA69C3F8242595F814C06A7DBCF104
:104EA000010F4CEA0202C3F86C25C3F80C15C3F8D5
:104EB00014051DD1A9684A1C1FBF01F5E0724FF00F
:104EC000A0404FF0000C40F822C0EA68501C0BD004
:104ED0004FF0A04C01209040CCF8080502F5E0709E
:104EE0004FF0030E4CF820E0C3F80825C3F8101566
:104EF0002423734308EB0302C2F804902A6948F89C
:104F00000320B9F1000F30D020682A7F4FF4887158
:104F1000FFF7E8FE20684FF49071FFF7E3FE20688A
:104F20004FF49271FFF7DEFE20684FF4A271FFF795
:104F3000D9FE4FF4AC712068FFF7D4FE23681A49FC
:104F4000C3F80413190B43F307335201002BD2B2F9
:104F50001CDB1648C51885F8002301225B0901F007
:104F60001F0102FA01F140F8231023680822C3F858
:104F70000025242303FB06830022C3E906225A618D
:104F8000012283F820203846BDE8F883084B01F061
:104F90000F015A54E9E70827F5E71127F3E700BFA7
:104FA00028130020154D01001003420000E100E02D
:104FB00014ED00E0F8B5444D0479242303FB0453B9
:104FC00002465B680068ABB1404BC0F8083340F361
:104FD0000733002B4FEA10310CDB01F01F065B0991
:104FE0000121B14020333A4E46F82310BFF34F8FD2
:104FF000BFF36F8FD0F8003223F02003C0F80032E7
:10500000242303FB04539B692BB14FF4A271FFF7D8
:1050100069FE012343604FF4AC71FFF763FE012387
:10502000C360242303FB0453D0F858110029FBD09C
:10503000996919B1D0F844110029F5D00023C0F8BE
:1050400000351368D3F80C75D3F81465D3F8082528
:10505000D3F810154FF0FF3C6745C3F80CC518BFD7
:1050600007F5E077C3F814C5C3F808C5C3F810C541
:105070001EBF4FF0A0434FF0020C43F827C0771C2F
:105080001FBF4FF0A04306F5E076022743F82670D5
:105090004E1C1FBF01F5E0714FF0A043022643F8FC
:1050A0002160531C1FBF4FF0A04302F5E0720221A4
:1050B00043F82210FFF7C8FB242303FB045400230A
:1050C00084F820306360F8BD2813002010034200EC
:1050D00000E100E001F06043B3F1005F2DE9F04131
:1050E000064638D11E4B0779242505FB073598461F
:1050F0006C69002C31D16A610068A9604FF490712D
:10510000FFF7F0FD4FF4AC713068FFF7EBFD33684B
:105110006A69A968C3F84415C3F8482501229A6052
:105120006A68AAB9D3F82021D3F858411AB9002CDB
:10513000F8D00F2407E0002CFBD10122DA60D3F86D
:105140005821002AFBD0242303FB078700237B611F
:105150002046BDE8F0811024FAE71124F8E700BFEB
:1051600028130020C4DF704710B5536883601368AC
:1051700043604A791A700A7802700C46818B01F0FC
:105180008001002341F07001C0E903330375C3823D
:1051900083618183C0F81E30C0F82230074B084875
:1051A0000849C01AC008000440F00300FDF74CFC99
:1051B0002046BDE8104000F005BA00BF5C65010064
:1051C000B46501008A73010010B5094B0949044612
:1051D000094822781B1ADB081B0443F00300FDF783
:1051E00033FC20780021BDE81040FFF7BBBF00BFB3
:1051F000B4650100A27301005C65010037B590F849
:105200002C200B789A4205460C4657D190F82D3049
:10521000802B53D143784E3B022B4FD82848294B43
:105220001B1ADB081B0443F003004B681B78792B27
:105230000ED12549FDF704FC04F11E01E81C00F025
:1052400083F80621A368204603B0BDE83040184724
:10525000EA781E4902F07F02FDF7F6FB281D04F1F3
:105260000C01019000F0B2F8E978019801F07F019B
:105270004B1E042BE6D8DFE803F003090F151B00D3
:1052800004F1100100F0DEF80121DBE704F1140164
:1052900000F000F90221D5E704F1180100F02AF925
:1052A0000321CFE704F11B0100F056F90421C9E7FF
:1052B00004F11D0100F062F90521C3E703B030BD20
:1052C0005C650100B4650100BA730100EE73010072
:1052D00037B5174B1749054617486A881B1ADB086C
:1052E0001B0443F003000190FDF7AEFB2A880198F0
:1052F00012494FF47A74C2F30903634303F5007350
:105300009B0A920AFDF7A9FBEA8801980C49FDF770
:105310009BFBAA880B490198C2F30903634303F579
:1053200000739B0A920A03B0BDE83040FDF795BBBD
:105330007C6501000D7401005C6501002A740100A8
:105340004D7401006A74010030B4C2788478034659
:1053500004EB022442790079DD7900EB02209A798E
:1053600002EB05225D781B784C8003EB05238880D7
:1053700030BC0B80CA800846FFF7AABF13B50F4B9D
:105380000F4904460F4862881B1ADB081B0443F0D0
:1053900003000190FDF758FB22880198C2F3090130
:1053A0004FF47A734B4303F5007307499B0A920A43
:1053B00002B0BDE81040FDF750BB00BF846501009E
:1053C000A87401005C650100C67401000346807981
:1053D0005A7902EB00221879DB784A8003EB00232C
:1053E0000B800846FFF7CABFF7B51249124C4000C0
:1053F000641A3C21E408B0FBF1F601FB16050195A7
:1054000018232404B6FBF1F501FB156100914FF45C
:1054100061620A49B0FBF2F2B2FBF3F703FB172318
:10542000074AB0FBF2F244F00300FDF72CFB03B097
:10543000F0BD00BF5C6501008C650100F9740100DE
:10544000805101008378427800781B0443EA0223EC
:1054500018430860FFF7C8BF13B50A4B0A49044652
:105460000A4822781B1ADB081B0443F00300019052
:10547000FDF7EAFA62880649019802B0BDE81040DB
:10548000FDF7E2BA94650100337501005C65010027
:10549000517501008278437803EB022302780A7089
:1054A0004B800846FFF7D8BF13B50D4B0D49044696
:1054B0000D4822781B1ADB081B0443F003000190FF
:1054C000FDF7C2FAA27801980849FDF7BDFA6278A3
:1054D0000749019802B0BDE81040FDF7B5BA00BF1A
:1054E0009C650100807501005C6501009E750100EE
:1054F000BC75010003780B7043784B7083788B7018
:105500000846FFF7D1BF000013B50F4B0F49044603
:105510000F4822781B1ADB081B0443F003004FF4EA
:105520007A7353436278019080331B0A02F00F02B2
:10553000FDF793FA627807490198C2F3021202B0AC
:10554000BDE81040FDF780BAA4650100E9750100CF
:105550005C6501000D76010043780B7082784B7812
:10556000C2F3030262F303038278C2F3021262F30E
:1055700006134B700846FFF7C7BF00000B78027890
:10558000084862F30003084A0B70801AC008DB0762
:105590004FEA00404CBF0549054940F00300FDF7C4
:1055A0004FBA00BFAC6501005C6501003A760100AE
:1055B0004B760100C2DF7047CDDF7047D1DF704707
:1055C000D3DF704710B504468378827A417800783B
:1055D000FFF7F0FFA8B923796279E1882078FFF717
:1055E000EFFF70B9E1782078FFF7E6FF48B9A378BC
:1055F000DB0706D4218921B12078BDE81040FFF7F0
:10560000DDBF10BDCCDF70470149FFF7FBBF00BF16
:10561000A40B002008B5002000F0D2F908B1FDF776
:10562000BDFD012008BD000008B5174B90F82C20E7
:105630001B789A4227D1154B1B7813F0BF0F22D14C
:1056400090F82D30082B09D8EBB1013B072B1AD865
:10565000DFE803F0170E191919191210802B12D157
:10566000072000F0ADF970B1BDE80840FDF796BD28
:105670000B20F6E70120F4E7BDE808400020FEF724
:1056800085BD0020EDE708BDAC0B00204C130020C9
:10569000034B1870034B0020197000F091B900BF44
:1056A000AC0B00204C130020064B1B78102B05D0B0
:1056B00013F0BF0F04D1012000F082B90220FBE7F4
:1056C000002070474C1300200220FDF785BB00002E
:1056D0002DE9F04780460D46FDF790FB0328044670
:1056E00010D8012D10D0022D30D05DB91A48FDF729
:1056F0006CFE1A4B04EB440213449E78184B1B5D5E
:10570000B34219D0BDE8F087144D00EB4002A91850
:10571000AE5C4A78470052B1DFF84C900E484A46DA
:105720004FF48041FDF739FE08B989F800803B1934
:105730002B449A780A4B1A55002EE3D0094B1B686C
:10574000002BDFD03046BDE8F047184700EB40049F
:10575000024804446678EFE770130020B01300207D
:10576000C9130020C41300204D130020007802212B
:10577000FFF7AEBF08B5094B1B7853B10020FDF70A
:1057800001FB0120FDF7FEFABDE808400320FDF70C
:10579000F9BABDE80840FDF701BB00BF4E13002079
:1057A000F8B57B4C237805461BB100232370FFF727
:1057B000E1FF172D00F28880DFE805F00C17174392
:1057C00054657680888D888D959A9A9A9A9AC4C9DC
:1057D000D1D9E4E4FFF7CEFF6E48FDF7F6FD6E4B3E
:1057E000002204461A702046F8BD0020FDF7B0FAEA
:1057F000F8B10020FDF7C6FA022D0CBF4FF4E161AD
:105800004FF47A61644B1D704FF400404FF47A748A
:105810000025E0FB01454FF4FA62002320462946AB
:1058200000F046FD00220146BDE8F8405948FDF76A
:10583000B4BDFDF79BFA022D0CBFC8214FF4C8710F
:10584000E0E70020FDF784FA40B10020FDF79AFA66
:105850004FF44871504B03221A70D5E7FDF786FAD2
:10586000C821F7E70020FDF773FA38B10020FDF7F3
:1058700089FA4FF47A61484B0422EDE7FDF776FA96
:105880004FF4C871F7E70020FDF762FA48B1002035
:10589000FDF778FA404B05221A7040F6CD41002200
:1058A000C2E7FDF763FAF5E70020FDF795FA3A4BFA
:1058B00006221A70002240F26661B5E70020FDF76B
:1058C00055FA354B07221A7000248CE7012020700E
:1058D000FDF782FAEEE701202070FDF77DFA002245
:1058E0004FF40051A0E7FDF768FA2B4B0C22EAE7D2
:1058F0002A482B4EFDF769FDD5F1110504461CD051
:10590000D8B9012D13D0C8235D434FF400474FF49D
:105910007A7000214FF4FA620023C7FB050100F002
:10592000C7FC224601461D48FDF737FD044602200C
:10593000FDF71CFA0123337055E70220FDF722FA28
:105940000023F8E7FFF716FF134B1222BBE7FFF720
:1059500011FF0020FDF70AFA0F4B1322B3E7FFF700
:1059600009FF0120FDF702FA0B4B1422ABE7FFF70A
:1059700001FF0020FDF7FAF90120FDF7F7F9064BCA
:105980001522A0E7FDF719FA034B1D709CE700BF35
:10599000C013002090130020C813002050130020D3
:1059A0004E130020044B1B68DB0703D5034B18780C
:1059B000FFF7F6BE704700BFBC130020C8130020DD
:1059C000044B1B6813F0010301D0FFF7E9BE184632
:1059D000704700BFBC13002038B51C4B18601C4B2F
:1059E00010F00204054619601AD01A4B1A480E220C
:1059F0001A700F22DA7010229A7111225A72042141
:105A000040F23332FDF732FB044648B9FDF784FB20
:105A1000044628B90146114A1148FDF7B3FC044673
:105A2000EB0711D50120FDF701FA6CB921460D4AAB
:105A30000D48FDF7A7FC044630B9BDE838400B4AD5
:105A40000B480121FDF79EBC204638BDBC13002049
:105A5000C4130020B01300206C7601006D570100C4
:105A600090760100A559010094760100C956010005
:105A70008C760100032811D8012A0AD101290FD1FF
:105A800000F10E02D2B20D4B00EB40001A54002080
:105A900070470129F7D0022904D049B10720704787
:105AA0000022F8E7054B00EB400018444270EEE797
:105AB000024B00EB400018448270E8E7B01300206E
:105AC000FDF740BB032808B512D8FDF7A9F98000FF
:105AD00000F1A040D0F8003723F44033C0F800377D
:105AE000D0F8003743F44033C0F80037002008BD39
:105AF0000620FCE710B5154B90F82C201B789A4235
:105B000023D1134B197811F0BF011ED190F82D301D
:105B1000082B12D0802B18D10E4C2178A9B9012264
:105B20000320FFF7A7FF0123072808BF00202370E9
:105B300058B1BDE81040FDF731BB064B0A220320E7
:105B40001970FFF797FF0728F2D110BDAD0B0020A9
:105B5000CD130020CE13002010B5FFF7B1FF04468F
:105B600028B90320FFF7AEFF062818BF04462046D9
:105B700010BD000008B5094B1870094B1970094B8E
:105B8000197839B90A220320FFF774FF072800D1DA
:105B9000002008BD01220021F5E700BFAD0B002069
:105BA000CD130020CE130020164B5A688242F0B568
:105BB000154D24D01C681E69DF685860A0EB0202F6
:105BC00022441A60A1EB0604C8BF02F580323C44AF
:105BD000C8BF1A608E42DC60C4BF04F58034DC604C
:105BE000D3E902201C681961A11A41F6CE524A433A
:105BF00059699C60411A586192FBF1F22A60286849
:105C0000F0BD00BF1C140020D41300200A2802D1CC
:105C10000020FEF7BBBA704708B590F82D30082B6E
:105C20000BD118220021054800F030FCBDE80840E7
:105C300003481822002100F029BC08BD1C140020D4
:105C4000041400200529F8B5054602D9062911D00B
:105C5000F8BD8189C089FFF7A7FF264B2649024678
:105C600026481B1ADB081B0443F00300BDE8F8407C
:105C7000FCF7EABE214B1F4C418C808CE41AE408EF
:105C8000FFF792FF240444F0030402461C49204617
:105C9000FCF7DAFE1B4B2E8C5A681B48964225D027
:105CA0001968ED8B1F691D61A6EB02020A44D968D1
:105CB0001A60A5EB070CB8BF02F580326144B8BF8B
:105CC0001A60BD42D960BCBF01F58031D960D3E90B
:105CD00002255E601E689E60B11A4FF470424A430E
:105CE00059695D61691A92FBF1F202600268074925
:105CF0002046BBE7BC650100987601005C650100A9
:105D0000C576010004140020D0130020FA760100AB
:105D100008B520B9FFF720FF08B1FDF73FFA0120D1
:105D200008BD000008B54FF480410020FCF7F4FCEA
:105D300008B1FDF733FAFCF72FFCFEF7EBF908B1D9
:105D4000FDF72CFAFDF7ECFA08B1FDF727FA254923
:105D50000320FFF741FE08B1FDF720FA224C402155
:105D60002078FFF707FF08B1FDF718FA20784021E7
:105D7000FFF78EFC08B1FDF711FA00F0E9F908B160
:105D8000FDF70CFA00F06AFA08B1FDF707FA0020F7
:105D9000FFF73AFC08B1FDF701FA144A144912481A
:105DA000FFF7E2F908B1FDF7F9F90F48FFF70CFA30
:105DB00008B1FDF7F3F9FFF777FC08B1FDF7EEF94D
:105DC0000C480D4B0D49C01AC008000440F00300F8
:105DD000FCF736FEFCF7F0FC0028FBD1FEF7B0F92B
:105DE000F8E700BF0D5C0100D813002070770100B8
:105DF00064770100BC6501005C650100307701003B
:105E0000044B1868421C04BF034B1878831F584288
:105E10005841704730010010E00F00F0074B1B782D
:105E2000062B09D1064B1B68C3F30313033B032B5B
:105E300002D8044AD05C704700207047E00F00F0A1
:105E4000E80F00F08077010008B5FFF7D9FF28B10F
:105E5000834B844A1B68C3F304231360FFF7DEFF00
:105E600010B1814B814A1A60FFF7CAFF28B1804BFD
:105E7000804A1B68C3F342331360FFF7CFFF20B1A2
:105E80007D4AD36823F08073D360FFF7B9FF40B138
:105E90004FF080430022C3F80C21C3F81021C3F84F
:105EA0003825FFF7BBFF10B1744B03221A60FFF7D0
:105EB000B5FF40B1724B05221A6001229A67002299
:105EC0009A603F225A606F4B1A68511C0BBF6E4B91
:105ED0006E4B1A781B6802BF08331B68C3F30313A9
:105EE000062A4DD1033B032B03D8694AD35C002B10
:105EF00046D04FF08052674BD2F80414C3F82015F7
:105F0000D2F80814C3F82415D2F80C14C3F82815D5
:105F1000D2F81014C3F82C15D2F81414C3F83015A5
:105F2000D2F81814C3F83415D2F81C14C3F840156D
:105F3000D2F82014C3F84415D2F82414C3F8481535
:105F4000D2F82814C3F84C15D2F82C14C3F8501505
:105F5000D2F83014C3F85415D2F83414C3F86015CD
:105F6000D2F83814C3F86415D2F83C14C3F8681595
:105F7000D2F84014C3F86C15D2F84424C3F8702545
:105F8000FFF73EFF28B1444B444A1B6803F04F0320
:105F90001360FFF735FF48B14FF08043D3F800247A
:105FA000D20744BF6FF00102C3F80024354B1B68D1
:105FB000062B0CD1354B1B68033B032B02D8384A08
:105FC000D35C23B1374A136843F480631360364AC5
:105FD000D2F8883043F47003C2F88830BFF34F8F93
:105FE000BFF36F8F4FF01023D3F80022002A03DB9A
:105FF000D3F80432002B2FDA2C4B0122C3F80425EE
:10600000D3F80024002AFBD04FF010221521C2F84B
:106010000012D3F80024002AFBD04FF010231522E1
:10602000C3F80422214B1A46D3F800140029FBD0F0
:106030000021C3F80415D2F80034002BFBD0BFF3C5
:106040004F8F19491A4BCA6802F4E0621343CB60C0
:10605000BFF34F8F00BFFDE7164B174A1A6008BD0C
:10606000240300104035014074C007400DF0ADBA64
:10607000440200103C050040F0ED00E0A0050040A7
:106080001056004030010010E00F00F03401001005
:106090007877010000C0004058020010E40E004074
:1060A0007C7701003C17004000ED00E000E001407B
:1060B0000400FA05B00B00200090D00310DF7047F9
:1060C00013B5044609496846FEF7C3F8019808B9B4
:1060D00002B010BDD0E900212046904718B16846B3
:1060E000FEF7C1F8F2E71120F2E700BFB877010030
:1060F00013B5044607496846FEF7ABF8019B0BB998
:1061000002B010BD2046D3E9002190476846FEF753
:10611000AAF8F3E7D07701000B4991F816335A0932
:10612000EC231341DB0706D5084B9A683AB94FF4C4
:1061300080030B60704742F20200FDF72FB81A6827
:1061400042F480021A60704700E100E0641200200F
:10615000F7B5194F3C786CBB184E012520463570B9
:10616000FFF7AEFF112822D02046FFF7C1FF144BE6
:106170008DF80340186801900DF10300FDF7FEF95A
:10618000104A114901A8FFF799FF0446B0FA80F0C0
:10619000400938709DF80300FDF714FA3CB90B4B29
:1061A00034701C70FFF7B8FF2846FFF7A1FF2046A8
:1061B00003B0F0BD0824FAE73514002034140020A1
:1061C000B477010084770100B93101003614002052
:1061D000014B1878704700BF3514002007B50849F7
:1061E0006846FEF736F8019B13B903B05DF804FB6F
:1061F000D3E9002090476846FEF735F8F3E700BF83
:10620000C4770100FFF7EABFC1DF7047FADF7047CC
:1062100010B5104B1B788EB0D3B10F4C02AA0DF104
:1062200035010DA8FFF7F0FF70B921466846FEF76B
:1062300010F8019B002BF1D002A8D3E90021904770
:106240006846FEF710F8F4E7052801D0FCF7A6FF32
:106250000EB010BDB8140020147801001FB50F4A0D
:1062600007CA01AB83E807001846FFF7CFFF0446D3
:1062700028B90B4B01221A70204604B010BDFEF75E
:1062800043F8084B0849024608481B1ADB081B0460
:1062900043F00100FCF7D8FBEEE700BF08780100EF
:1062A000B8140020E4650100DC7701005C650100A2
:1062B00053EA020C61D02DE9F04BB3FA83F51E00CE
:1062C00007BFB2FA82F502FA05F403FA05F416469E
:1062D000C5F120051EBF22FA05F73C43203556EADA
:1062E000044C4FEA144418BF0134A3464FF0000990
:1062F000C846904271EB030C39D3094207BFB0FA8C
:1063000080F700FA07F6B1FA81F701FA07F6C7F14C
:1063100020071EBF20FA07FC46EA0C062037B6FB12
:10632000FBFC7F1B103F07F01F04C4F120060CFA92
:1063300004F42CFA06F644BF34460026202FA4BFEE
:106340002646002454EA060C08BF012418EB040872
:1063500049EB0609A4FB027CC01B06FB02CC04FB34
:1063600003CC71EB0C01904271EB030CC5D20B46D0
:10637000024649464046BDE8F08BB2FBF3F200000E
:106380007F2805D8034B185C034B5B5C18407047B3
:10639000002070472C780100AC780100A0F1610367
:1063A000192B98BF20387047A0F14103192B98BFD3
:1063B000203070477F2805D8034B185C034B5B5C8B
:1063C00018407047002070472C780100AC7801001D
:1063D000A0F16103192B98BF20387047A0F1410349
:1063E000192B98BF203070477F299ABF0170012078
:1063F0006FF02E0070475AB10A787F2A0AD800B190
:106400000260002119605960501A18BF01207047BE
:10641000002070476FF02E007047000008B5034B56
:106420005B689B681B68984708BD00BFB40B0020E1
:1064300008B50921FFF7F2FF08BD844640EA0103D1
:1064400013F0030F18D18446202A0BD32DE9F0074F
:10645000B1E8F807A0E8F807A2F12002202AF7D255
:10646000BDE8F007042A07D351F8043B40F8043B89
:10647000A2F10402042AF7D2002A05D011F8013B48
:1064800000F8013B013AF9D1604670478446002A82
:106490002DD010F0030F04D000F8011B013A26D0D4
:1064A000F7E7C9B241EA012141EA0141202A12D3AA
:1064B000A2F120022DE9F0030B460C460D460E46D4
:1064C0000F4688468946A0E8FA03203AFBD2BDE889
:1064D000F00320320BD0042A05D340F8041B043A01
:1064E00005D0042AF9D200F8011B013AFBD160461D
:1064F000704700F1010110F0030F11D010F8012BCB
:10650000002A23D010F0030F0AD010F8012B002A24
:106510001CD010F0030F03D010F8012B002A15D067
:106520002DE970004FF001324FF0803350F8044BEA
:10653000A4EB020525EA04051D4000D1F6E7A0F111
:10654000040070BC10F8012B002AFBD1A0EB010065
:02655000704792
:0865540015560100115D010064
:10655C0074730100000000007B7301000000000058
:10656C007F73010000000000847301000000000034
:10657C009074010000000303EA740100000003039F
:10658C002475010000000303717501000000030372
:10659C00DA750100000003032B76010000000303F1
:1065AC005B76010000000303057401000000030387
:1065BC0096660100000003037467010000000000F0
:1065CC009D67010000000000DA6D0100000003036C
:1065DC00AC77010000000303F9770100000003030E
:1065EC005C6E010000000000746E010000000000F1
:1065FC002956010000000000F55A010000000000BF
:10660C00195C010000000000FD510100D8130020AE
:10661C00686601000000000074660100940B002005
:08662C001162010000000000F2
:106634000C0C0020D40C0020DC0C0020140C0020D6
:04664400180000003A
:10664800FFFFFFFFFFFFFFFFFFFFFFFFFFFFFFFF52
:1066580000000000000000000000D6010601000054
:106668000125010065250100A124010075617274EE
:106678005F6C6F675F6261636B656E640042616344
:106688006B656E647320666C757368656400617011
:1066980070000000FC1000207F0000007C1100202A
:1066A8001B5B306D002573001B5B313B33316D0084
:1066B80025734C6F67732064726F7070656420284F
:1066C80025642925730D0A003C25733E2025733A5D
:1066D8002000202530327800202020007C0025630F
:1066E800001B5B313B33306D001B5B313B33326D3C
:1066F800001B5B313B33336D001B5B313B33346D27
:10670800001B5B313B33356D001B5B313B33366D12
:10671800001B5B313B33376D007761726E696E67C2
:1067280000696E666F00646562756700A86601009F
:10673800E9660100B0660100F1660100F966010032
:10674800016701000967010011670100196701006D
:10675800000000008A670100216701002967010025
:106768002E6701000D0E0F10111213146170705F67
:10677800627574746F6E0000A01100204661746128
:106788006C206572726F720053797374656D207234
:1067980065736574006170705F74696D657200007F
:1067A8000100060000000000DC1100202932010071
:1067B80052544320696E7374616E636520616C7214
:1067C8006561647920696E697469616C697A656468
:1067D8002E005254433A20696E697469616C697A73
:1067E80065642E00000000000338FDD8704748415A
:1067F8005244204641554C5420617420307825304D
:10680800385800202052303A202030782530385827
:10681800202052313A202030782530385820205214
:10682800323A2020307825303858202052333A2008
:10683800203078253038580020205231323A203024
:10684800782530385820204C523A2020307825308E
:10685800385820205053523A203078253038580084
:10686800537461636B2076696F6C6174696F6E3AFB
:1068780020737461636B20706F696E746572206F2A
:1068880075747369646520737461636B20617265E4
:10689800612E0043617573653A20427573466175D0
:1068A8006C74206F6E206120766563746F7220743B
:1068B80061626C65207265616420647572696E67D7
:1068C80020657863657074696F6E2070726F636598
:1068D8007373696E672E0043617573653A2025737B
:1068E8002E004D656D4D616E616765204661756C62
:1068F8007420416464726573733A203078253038A7
:106908005800427573204661756C74204164647246
:106918006573733A203078253038580054686520FC
:1069280070726F636573736F72206861732061742E
:1069380074656D7074656420746F2065786563751F
:10694800746520616E20756E646566696E65642085
:10695800696E737472756374696F6E00546865202C
:1069680070726F636573736F7220617474656D7094
:106978007465642061206C6F6164206F7220737489
:106988006F72652061742061206C6F636174696F38
:106998006E207468617420646F6573206E6F742054
:1069A8007065726D697420746865206F70657261B6
:1069B80074696F6E00556E737461636B20666F72D5
:1069C80020616E20657863657074696F6E207265EA
:1069D8007475726E206861732063617573656420D5
:1069E8006F6E65206F72206D6F72652061636365DD
:1069F80073732076696F6C6174696F6E730053747A
:106A080061636B696E6720666F7220616E206578BE
:106A180063657074696F6E20656E74727920686141
:106A28007320636175736564206F6E65206F7220D3
:106A38006D6F7265206163636573732076696F6C2F
:106A48006174696F6E730041204D656D4D616E61B3
:106A58006765206661756C74206F63637572726513
:106A68006420647572696E6720666C6F6174696E04
:106A7800672D706F696E74206C617A792073746108
:106A8800746520707265736572766174696F6E00E3
:106A9800496E737472756374696F6E2062757320C2
:106AA8006572726F7200446174612062757320654B
:106AB80072726F72202850432076616C756520735E
:106AC8007461636B656420666F7220746865206505
:106AD8007863657074696F6E2072657475726E2064
:106AE800706F696E747320746F2074686520696EA6
:106AF800737472756374696F6E207468617420634F
:106B0800617573656420746865206661756C7429A5
:106B1800004461746120627573206572726F72201F
:106B28002872657475726E2061646472657373206F
:106B3800696E2074686520737461636B2066726186
:106B48006D65206973206E6F742072656C61746561
:106B58006420746F2074686520696E73747275633D
:106B680074696F6E207468617420636175736564FD
:106B780020746865206572726F722900556E73748F
:106B880061636B20666F7220616E20657863657043
:106B980074696F6E2072657475726E2068617320F7
:106BA800636175736564206F6E65206F72206D6F09
:106BB8007265204275734661756C74730053746115
:106BC800636B696E6720666F7220616E20657863FB
:106BD800657074696F6E20656E7472792068617370
:106BE80020636175736564206F6E65206F72206D18
:106BF8006F7265204275734661756C74730041202D
:106C0800627573206661756C74206F636375727248
:106C1800656420647572696E6720666C6F6174695B
:106C28006E672D706F696E74206C617A7920737449
:106C380061746520707265736572766174696F6ED0
:106C4800005468652070726F636573736F72206893
:106C5800617320617474656D7074656420746F204D
:106C68006578656375746520616E20696E737472EA
:106C7800756374696F6E2074686174206D616B65EB
:106C88007320696C6C6567616C20757365206F662D
:106C9800207468652045505352005468652070720E
:106CA8006F636573736F72206861732061747465B4
:106CB8006D7074656420616E20696C6C6567616CC9
:106CC800206C6F6164206F66204558435F524554BD
:106CD80055524E20746F207468652050432C2061F3
:106CE80073206120726573756C74206F6620616E05
:106CF80020696E76616C696420636F6E7465787460
:106D08002C206F7220616E20696E76616C69642038
:106D18004558435F52455455524E2076616C75650F
:106D2800005468652070726F636573736F722068B2
:106D3800617320617474656D7074656420746F206C
:106D4800616363657373206120636F70726F63653D
:106D580073736F72005468652070726F6365737324
:106D68006F7220686173206D61646520616E2075A3
:106D78006E616C69676E6564206D656D6F727920F0
:106D8800616363657373005468652070726F63652F
:106D980073736F72206861732065786563757465B5
:106DA8006420616E2053444956206F72205544492F
:106DB8005620696E737472756374696F6E20776993
:106DC800746820612064697669736F72206F662029
:106DD8003000686172646661756C74002469010032
:106DE8006469010000000000BD690100066A010035
:106DF8004F6A01000000000000000000986A0100CE
:106E0800AE6A0100196B0100846B0100C56B0100BB
:106E1800066C010000000000000000002469010069
:106E2800496C0100A26C0100296D010000000000FE
:106E38000000000000000000000000005D6D01007F
:106E48008F6D0100303132333435363738394142AD
:106E5800434445467077725F6D676D7400000000AB
:106E6800546501005C65010004000000736F7274D2
:106E78006C697374004E52465F53554343455353F0
:106E8800004E52465F4552524F525F5356435F4839
:106E9800414E444C45525F4D495353494E47004E6D
:106EA80052465F4552524F525F534F4654444556DF
:106EB8004943455F4E4F545F454E41424C4544005F
:106EC8004E52465F4552524F525F494E5445524EBC
:106ED800414C004E52465F4552524F525F4E4F5FF3
:106EE8004D454D004E52465F4552524F525F4E4FF0
:106EF800545F464F554E44004E52465F4552524FDE
:106F0800525F4E4F545F535550504F5254454400B2
:106F18004E52465F4552524F525F494E56414C4978
:106F2800445F504152414D004E52465F4552524FC8
:106F3800525F494E56414C49445F535441544500B1
:106F48004E52465F4552524F525F494E56414C4948
:106F5800445F4C454E475448004E52465F45525296
:106F68004F525F494E56414C49445F464C41475346
:106F7800004E52465F4552524F525F494E56414C61
:106F880049445F44415441004E52465F4552524F76
:106F9800525F444154415F53495A45004E52465F3F
:106FA8004552524F525F54494D454F5554004E5229
:106FB800465F4552524F525F4E554C4C004E52461A
:106FC8005F4552524F525F464F5242494444454EE4
:106FD800004E52465F4552524F525F494E56414C01
:106FE80049445F41444452004E52465F4552524F15
:106FF800525F42555359004E52465F4552524F52C6
:107008005F434F4E4E5F434F554E54004E52465FBE
:107018004552524F525F5245534F555243455300C4
:107028004E52465F4552524F525F4D4F44554C4564
:107038005F4E4F545F494E495449414C495A454463
:10704800004E52465F4552524F525F4D5554455877
:107058005F494E49545F4641494C4544004E5246AB
:107068005F4552524F525F4D555445585F4C4F4300
:107078004B5F4641494C4544004E52465F4552528B
:107088004F525F4D555445585F554E4C4F434B5FDB
:107098004641494C4544004E52465F4552524F5274
:1070A8005F4D555445585F434F4E445F494E4954D0
:1070B8005F4641494C4544004E52465F4552524F47
:1070C800525F4D4F44554C455F414C5245414459E0
:1070D8005F494E495449414C495A4544004E52462D
:1070E8005F4552524F525F53544F524147455F4696
:1070F800554C4C004E52465F4552524F525F4150DC
:10710800495F4E4F545F494D504C454D454E54458F
:1071180044004E52465F4552524F525F46454154D5
:107128005552455F4E4F545F454E41424C454400D1
:107138004E52465F4552524F525F494F5F50454E3F
:1071480044494E47004E52465F4552524F525F44A3
:1071580052565F5457495F4552525F4F56455252F7
:10716800554E004E52465F4552524F525F4452565A
:107178005F5457495F4552525F414E41434B004E61
:1071880052465F4552524F525F4452565F545749D8
:107198005F4552525F444E41434B004E52465F4555
:1071A80052524F525F424C455F495053505F5258BC
:1071B8005F504B545F5452554E4341544544004E22
:1071C80052465F4552524F525F424C455F495053B9
:1071D800505F4348414E4E454C5F414C52454144F7
:1071E800595F455849535453004E52465F455252D1
:1071F8004F525F424C455F495053505F4C494E4B8C
:107208005F444953434F4E4E4543544544004E5204
:10721800465F4552524F525F424C455F495053506A
:107228005F504545525F52454A45435445440055D1
:107238006E6B6E6F776E206572726F7220636F640B
:1072480065000000000000007D6E010001000000E4
:10725800896E010002000000A76E01000300000013
:10726800C86E010004000000DB6E0100050000008C
:10727800EC6E010006000000006F0100070000002E
:10728800186F010008000000306F010009000000BD
:10729800486F01000A000000616F01000B00000048
:1072A800796F01000C000000906F01000D000000D4
:1072B800A46F01000E000000B66F01000F0000006F
:1072C800C56F010010000000D96F01001100000017
:1072D800F06F010012000000FF6F010013000000B2
:1072E8001470010080000000287001008100000077
:1072F80049700100820000006570010083000000F1
:1073080081700100840000009F700100850000006A
:10731800C070010086000000E570010090000000C8
:10732800FC700100910000001A7101009200000039
:1073380038710100008200004D71010001820000D7
:107348006B71010002820000877101000084000057
:10735800A371010001840000C771010002840000CC
:10736800F171010003840000167201004750494F73
:1073780054450050525300554152540055415254FF
:107388004500414E5420425343206368616E6E6548
:107398006C20257520696E697400414E5420425353
:1073A80043206368616E6E656C202575206F70657B
:1073B8006E004253432052582050616765204E7535
:1073C8006D6265723A2022436F6D62696E65642052
:1073D8005370656564202620436164656E6365208B
:1073E800506167652200425343205258205061671C
:1073F80065204E756D6265723A20257500616E7460
:107408005F62736300436164656E636520526576ED
:107418006F6C7574696F6E20636F756E743A202592
:107428007500436164656E6365206576656E7420DA
:1074380074696D653A2020202020202025752E258E
:1074480030337573005370656564205265766F6CD0
:107458007574696F6E20636F756E743A20202025ED
:1074680075005370656564206576656E742074696F
:107478006D653A20202020202020202025752E25EB
:10748800303375730D0A0A00616E745F6263735F4F
:10749800636F6D62696E65645F706167655F300018
:1074A8005265766F6C7574696F6E20636F756E7454
:1074B8003A2020202020202020202025750042531B
:1074C80043206576656E742074696D653A202020C6
:1074D80020202020202020202025752E25303375BF
:1074E8007300616E745F6263735F706167655F30BC
:1074F8000043756D756C6174697665206F7065728F
:107508006174696E672074696D653A202575642019
:107518002575682025756D2025757300616E745F6B
:107528006263735F706167655F31004D616E756698
:10753800616374757265722049443A2020202020C6
:1075480020202020202025750053657269616C2059
:107558004E6F202875707065722031362D626974FF
:1075680073293A203078255800616E745F6263731E
:107578005F706167655F3200486172647761726548
:10758800205265762049443A2020202020202020BF
:107598002020202575004D6F64656C204E756D6246
:1075A80065723A2020202020202020202020202022
:1075B80020257500536F6674776172652056657271
:1075C8002049443A20202020202020202020202547
:1075D8007500616E745F6263735F706167655F33C6
:1075E800004261747465727920766F6C74616765A6
:1075F8003A202020202020202020202025752E25FC
:107608003033755600426174746572792073746101
:107618007475733A2020202020202020202020204C
:10762800257500616E745F6263735F706167655F83
:10763800340042696379636C652073746F70706598
:10764800642E0042696379636C65206D6F76696E9C
:10765800672E00616E745F6263735F706167655F58
:10766800350000000D000300D15601000E00030094
:10767800D15601000F000300D1560100100003008D
:10768800D1560100501300207013002090130020E1
:10769800436F6D70757465642073706565642076DA
:1076A800616C75653A202020202020202020202091
:1076B8002020202020202575206B706800436F6DE6
:1076C80070757465642073706565642076616C7587
:1076D800653A202020202020202020202020202043
:1076E80020202020202020202020202575206B709D
:1076F8006800436F6D707574656420636164656EBE
:1077080063652076616C75653A2020202020202052
:107718002020202020202020202020202020202061
:1077280025752072706D7300414E542B2042696399
:1077380079636C6520537065656420616E642043CD
:107748006164656E6365205258206578616D706C60
:107758006520737461727465642E000000400039FE
:10776800007B0000B61F000000140020455C0100EB
:10777800000001010000000101000000333833312E
:107788002D353231642D376466392D323464382D05
:10779800656666332D343637622D323235662D6193
:1077A800303065006E72665F736468000100000720
:1077B8002C6601002C660100080000002C66010000
:1077C80034660100080000002C6601002C660100E8
:1077D8000800000073645F616E745F656E61626CBF
:1077E8006528292072657475726E65642025732E6C
:1077F800006E72665F7364685F616E7400000000FB
:10780800010020003814002080000000FC65010001
:107818001C6601000800000043000000504F534957
:107828005800000020202020202020202068282820
:107838002828202020202020202020202020202030
:1078480020202020481010101010101010101010B8
:107858001010101084848484848484848484101098
:1078680010101010108181818181810101010101B5
:1078780001010101010101010101010101010110E1
:10788800101010101082828282828202020202028A
:1078980002020202020202020202020202020210B2
:1078A8001010102000070320041702010857104089
:1078B800800000002078010024790100387A010056
:1078C80053756E004D6F6E00547565005765640002
:1078D8005468750046726900536174000000000026
:1078E8004A616E00466562004D6172004170720027
:1078F8004D6179004A756E004A756C0041756700E4
:10790800536570004F6374004E6F760044656300E2
:1079180000000000414D00504D0000005C7A01005D
:10792800587A0100587A0100587A0100587A010003
:10793800587A0100587A0100587A0100587A0100F3
:10794800587A0100FFFFFFFFFFFFFFFFFFFFFFFF68
:10795800FFFF000098790100C8780100D479010080
:10796800E87801001C7901007C7901002C7A01007B
:1079780088790100256D2F25642F257900000000E6
:1079880025612025622025652025542025590000E1
:1079980053756E646179004D6F6E6461790054753A
:1079A8006573646179005765646E65736461790015
:1079B800546875727364617900467269646179000C
:1079C8005361747572646179000000004A616E75D4
:1079D800617279004665627275617279004D6172F3
:1079E800636800417072696C004D6179004A756E78
:1079F80065004A756C790041756775737400536545
:107A08007074656D626572004F63746F62657200B1
:107A18004E6F76656D62657200446563656D62657B
:107A28007200000025483A254D3A25530000000011
:107A3800816301009D630100A9630100B563010032
:107A4800D1630100DD630100E9630100F763010010
:067A5800000000002E00FA
:107A60000000000000200040000000000020004056
:107A70000000000000000000FF00000000100140B6
:107A800011000400B9A521FBBD72C345FFFF000032
:107A90000090D003BC780100BC780100BC780100E4
:087AA000BC780100BC78010074
:040000031000237551
:00000001FF
